{
	"contracts/core/UserOperationLib.sol": {
		"UserOperationLib": {
			"abi": [
				{
					"inputs": [],
					"name": "PAYMASTER_DATA_OFFSET",
					"outputs": [
						{
							"internalType": "uint256",
							"name": "",
							"type": "uint256"
						}
					],
					"stateMutability": "view",
					"type": "function"
				},
				{
					"inputs": [],
					"name": "PAYMASTER_POSTOP_GAS_OFFSET",
					"outputs": [
						{
							"internalType": "uint256",
							"name": "",
							"type": "uint256"
						}
					],
					"stateMutability": "view",
					"type": "function"
				},
				{
					"inputs": [],
					"name": "PAYMASTER_VALIDATION_GAS_OFFSET",
					"outputs": [
						{
							"internalType": "uint256",
							"name": "",
							"type": "uint256"
						}
					],
					"stateMutability": "view",
					"type": "function"
				}
			],
			"devdoc": {
				"kind": "dev",
				"methods": {},
				"version": 1
			},
			"userdoc": {
				"kind": "user",
				"methods": {},
				"notice": "Utility functions helpful when working with UserOperation structs.",
				"version": 1
			},
			"storageLayout": {
				"storage": [],
				"types": null
			},
			"evm": {
				"assembly": "// RO data = 0/0 bytes\n// RW data = 4/65584 bytes\n// Stack size = 16384 bytes\n\n// Instructions = 945\n// Code size = 2791 bytes\n\n      : @0 (gas: 2)\n     0: i32 a2 = a0 >> 0x10\n     3: jump @6 if a2 != 0\n      : @1 (gas: 2)\n     6: a2 = 0x10001\n    11: jump @6 if a1 >=u a2\n      : @2 (gas: 4)\n    14: a1 = a1 + a0\n    17: i32 a1 = a1 + 0x1f\n    20: a1 = a1 & 0xffffffffffffffe0\n    23: jump @7 if a1 >=u 65537\n      : @3 (gas: 2)\n    29: a3 = i32 [0x20004]\n    34: jump @5 if a3 >=u a1\n      : @4 (gas: 4)\n    37: u32 [0x20004] = a1\n    42: a1 = 0x20010\n    47: a0 = a0 + a1\n    50: ret\n      : @5 (gas: 3)\n    52: a1 = 0x20010\n    57: a0 = a0 + a1\n    60: ret\n      : @6 (gas: 1)\n    62: trap\n      : @7 (gas: 1)\n    63: trap\n      : @8 (gas: 6)\n    64: sp = sp + 0xfffffffffffffff0\n    67: u64 [sp + 0x8] = ra\n    70: u64 [sp] = s0\n    72: s0 = a0 & 0x1\n    75: ecalli 3 // 'call_data_size'\n    77: fallthrough\n      : @9 (gas: 2)\n    78: u32 [0x20008] = a0\n    83: jump @11 if s0 == 0\n      : @10 (gas: 1)\n    86: ra = 2, jump @12\n      : @11 [@dyn 1] (gas: 1)\n    90: ra = 4, jump @26\n      : @12 [@dyn 2] (gas: 9)\n    95: sp = sp + 0xffffffffffffffa0\n    98: u64 [sp + 0x58] = ra\n   101: u64 [sp + 0x50] = s0\n   104: u64 [sp + 0x48] = s1\n   107: s0 = sp + 0x60\n   110: sp = sp & 0xffffffffffffffe0\n   113: a0 = 0x40\n   116: a1 = 0x20\n   119: ra = 6, jump @0\n      : @13 [@dyn 3] (gas: 39)\n   123: u8 [a0 + 31] = 0x80\n   128: u8 [a0 + 30] = 0\n   131: u8 [a0 + 29] = 0\n   134: u8 [a0 + 28] = 0\n   137: u8 [a0 + 27] = 0\n   140: u8 [a0 + 26] = 0\n   143: u8 [a0 + 25] = 0\n   146: u8 [a0 + 24] = 0\n   149: u8 [a0 + 23] = 0\n   152: u8 [a0 + 22] = 0\n   155: u8 [a0 + 21] = 0\n   158: u8 [a0 + 20] = 0\n   161: u8 [a0 + 19] = 0\n   164: u8 [a0 + 18] = 0\n   167: u8 [a0 + 17] = 0\n   170: u8 [a0 + 16] = 0\n   173: u8 [a0 + 15] = 0\n   176: u8 [a0 + 14] = 0\n   179: u8 [a0 + 13] = 0\n   182: u8 [a0 + 12] = 0\n   185: u8 [a0 + 11] = 0\n   188: u8 [a0 + 10] = 0\n   191: u8 [a0 + 9] = 0\n   194: u8 [a0 + 8] = 0\n   197: u8 [a0 + 7] = 0\n   200: u8 [a0 + 6] = 0\n   203: u8 [a0 + 5] = 0\n   206: u8 [a0 + 4] = 0\n   209: u8 [a0 + 3] = 0\n   212: u8 [a0 + 2] = 0\n   215: u8 [a0 + 1] = 0\n   218: u8 [a0 + 0] = 0\n   220: u64 [sp + 24] = 0\n   223: u64 [sp + 0] = 0\n   225: u64 [sp + 8] = 0\n   228: u64 [sp + 16] = 0\n   231: i32 a0 = sp + 0\n   233: ecalli 6 // 'value_transferred'\n   235: fallthrough\n      : @14 (gas: 8)\n   236: a0 = u64 [sp + 0x10]\n   239: a1 = u64 [sp + 0x18]\n   242: a2 = u64 [sp + 0x8]\n   245: a3 = u64 [sp]\n   247: a1 = a1 | a2\n   250: a0 = a0 | a3\n   253: a0 = a0 | a1\n   256: jump @18 if a0 != 0\n      : @15 (gas: 3)\n   260: a0 = 0x40\n   263: a1 = 0x20\n   266: ra = 8, jump @0\n      : @16 [@dyn 4] (gas: 100)\n   271: a1 = u8 [a0 + 0x11]\n   274: a2 = u8 [a0 + 0x10]\n   277: a3 = u8 [a0 + 0x12]\n   280: a4 = u8 [a0 + 0x13]\n   283: a1 = a1 << 0x8\n   286: a1 = a1 | a2\n   289: a3 = a3 << 0x10\n   292: a4 = a4 << 0x18\n   295: a3 = a3 | a4\n   298: a1 = a1 | a3\n   301: a2 = u8 [a0 + 0x15]\n   304: a3 = u8 [a0 + 0x14]\n   307: a4 = u8 [a0 + 0x16]\n   310: a5 = u8 [a0 + 0x17]\n   313: a2 = a2 << 0x8\n   316: a2 = a2 | a3\n   319: a4 = a4 << 0x10\n   322: a5 = a5 << 0x18\n   325: a4 = a4 | a5\n   328: a2 = a2 | a4\n   331: a2 = a2 << 0x20\n   334: t0 = a2 | a1\n   337: a2 = u8 [a0 + 0x1]\n   340: a3 = u8 [a0]\n   342: a4 = u8 [a0 + 0x2]\n   345: a5 = u8 [a0 + 0x3]\n   348: a2 = a2 << 0x8\n   351: a2 = a2 | a3\n   354: a4 = a4 << 0x10\n   357: a5 = a5 << 0x18\n   360: a4 = a4 | a5\n   363: a2 = a2 | a4\n   366: a3 = u8 [a0 + 0x5]\n   369: a4 = u8 [a0 + 0x4]\n   372: a5 = u8 [a0 + 0x6]\n   375: s1 = u8 [a0 + 0x7]\n   378: a3 = a3 << 0x8\n   381: a3 = a3 | a4\n   384: a5 = a5 << 0x10\n   387: s1 = s1 << 0x18\n   390: a5 = a5 | s1\n   393: a3 = a3 | a5\n   396: a3 = a3 << 0x20\n   399: a2 = a2 | a3\n   402: a3 = u8 [a0 + 0x19]\n   405: a4 = u8 [a0 + 0x18]\n   408: a5 = u8 [a0 + 0x1a]\n   411: s1 = u8 [a0 + 0x1b]\n   414: a3 = a3 << 0x8\n   417: a3 = a3 | a4\n   420: a5 = a5 << 0x10\n   423: s1 = s1 << 0x18\n   426: a5 = a5 | s1\n   429: a3 = a3 | a5\n   432: a4 = u8 [a0 + 0x1d]\n   435: a5 = u8 [a0 + 0x1c]\n   438: s1 = u8 [a0 + 0x1e]\n   441: a1 = u8 [a0 + 0x1f]\n   444: a4 = a4 << 0x8\n   447: a4 = a4 | a5\n   450: s1 = s1 << 0x10\n   453: a1 = a1 << 0x18\n   456: a1 = a1 | s1\n   459: a1 = a1 | a4\n   462: a1 = a1 << 0x20\n   465: a3 = a3 | a1\n   468: a1 = u8 [a0 + 0x9]\n   471: a4 = u8 [a0 + 0x8]\n   474: a5 = u8 [a0 + 0xa]\n   477: s1 = u8 [a0 + 0xb]\n   480: a1 = a1 << 0x8\n   483: a1 = a1 | a4\n   486: a5 = a5 << 0x10\n   489: s1 = s1 << 0x18\n   492: a5 = a5 | s1\n   495: a1 = a1 | a5\n   498: a4 = u8 [a0 + 0xd]\n   501: a5 = u8 [a0 + 0xc]\n   504: s1 = u8 [a0 + 0xe]\n   507: a0 = u8 [a0 + 0xf]\n   510: a4 = a4 << 0x8\n   513: a4 = a4 | a5\n   516: s1 = s1 << 0x10\n   519: a0 = a0 << 0x18\n   522: a0 = a0 | s1\n   525: a0 = a0 | a4\n   528: a0 = a0 << 0x20\n   531: a0 = a0 | a1\n   534: a0 = reverse a0\n   536: s1 = reverse a3\n   538: a1 = reverse a2\n   540: a2 = reverse t0\n   542: a1 = a1 | a2\n   545: a2 = s1 | a0\n   548: a2 = a2 | a1\n   551: a2 = a2 >> 0x20\n   554: a0 = a0 | a1\n   557: a0 = a0 << 0x20\n   560: a0 = a0 | a2\n   563: jump @20 if a0 == 0\n      : @17 (gas: 1)\n   566: trap\n      : @18 (gas: 3)\n   567: a0 = 0\n   569: a1 = 0\n   571: ra = 10, jump @0\n      : @19 [@dyn 5] (gas: 5)\n   576: i32 a1 = a0 + 0\n   578: a0 = 0x1\n   581: a2 = 0\n   583: ecalli 4 // 'seal_return'\n   585: fallthrough\n      : @20 (gas: 4)\n   586: i32 s1 = s1 + 0\n   588: a0 = s1\n   590: a1 = 0\n   592: ra = 12, jump @0\n      : @21 [@dyn 6] (gas: 7)\n   597: i32 a0 = a0 + 0\n   599: a1 = 0\n   601: a2 = 0\n   603: ecalli 1 // 'call_data_copy'\n   605: i32 a0 = sp + 0x20\n   608: ecalli 0 // 'address'\n   609: fallthrough\n      : @22 (gas: 21)\n   610: a0 = u64 [sp + 0x28]\n   613: a1 = i32 [sp + 0x30]\n   616: a2 = u64 [sp + 0x20]\n   619: a0 = reverse a0\n   621: a3 = a0 << 0x20\n   624: a1 = reverse a1\n   626: a1 = a1 >> 0x20\n   629: a3 = a3 | a1\n   632: a1 = a0 >> 0x20\n   635: a2 = reverse a2\n   637: a4 = a2 << 0x20\n   640: a5 = 0x20000\n   645: a0 = 0x30010\n   650: a4 = a4 | a1\n   653: a2 = a2 >> 0x20\n   656: a1 = i32 [0x20000]\n   661: u64 [0x30020] = a2\n   666: u64 [0x30028] = 0\n   671: u64 [0x30018] = a4\n   676: u64 [0x30010] = a3\n   681: jump @24 if a1 == 0\n      : @23 (gas: 3)\n   684: i32 a0 = a0 + 0\n   686: ecalli 5 // 'set_immutable_data'\n   688: fallthrough\n      : @24 (gas: 3)\n   689: a0 = s1\n   691: a1 = 0\n   693: ra = 14, jump @0\n      : @25 [@dyn 7] (gas: 6)\n   698: i32 a1 = a0 + 0\n   700: a0 = 0\n   702: a2 = 0\n   704: ra = 0x10\n   707: ecalli 4 // 'seal_return'\n   709: fallthrough\n      : @26 [@dyn 8] (gas: 8)\n   710: sp = sp + 0xffffffffffffffc0\n   713: u64 [sp + 0x38] = ra\n   716: u64 [sp + 0x30] = s0\n   719: s0 = sp + 0x40\n   722: sp = sp & 0xffffffffffffffe0\n   725: a0 = 0x40\n   728: a1 = 0x20\n   731: ra = 18, jump @0\n      : @27 [@dyn 9] (gas: 34)\n   736: u8 [a0 + 31] = 0x80\n   741: u8 [a0 + 30] = 0\n   744: u8 [a0 + 29] = 0\n   747: u8 [a0 + 28] = 0\n   750: u8 [a0 + 27] = 0\n   753: u8 [a0 + 26] = 0\n   756: u8 [a0 + 25] = 0\n   759: u8 [a0 + 24] = 0\n   762: u8 [a0 + 23] = 0\n   765: u8 [a0 + 22] = 0\n   768: u8 [a0 + 21] = 0\n   771: u8 [a0 + 20] = 0\n   774: u8 [a0 + 19] = 0\n   777: u8 [a0 + 18] = 0\n   780: u8 [a0 + 17] = 0\n   783: u8 [a0 + 16] = 0\n   786: u8 [a0 + 15] = 0\n   789: u8 [a0 + 14] = 0\n   792: u8 [a0 + 13] = 0\n   795: u8 [a0 + 12] = 0\n   798: u8 [a0 + 11] = 0\n   801: u8 [a0 + 10] = 0\n   804: u8 [a0 + 9] = 0\n   807: u8 [a0 + 8] = 0\n   810: u8 [a0 + 7] = 0\n   813: u8 [a0 + 3] = 0\n   816: u8 [a0 + 2] = 0\n   819: u8 [a0 + 1] = 0\n   822: u8 [a0 + 0] = 0\n   824: a1 = i32 [0x20008]\n   829: u8 [a0 + 6] = 0\n   832: u8 [a0 + 5] = 0\n   835: u8 [a0 + 4] = 0\n   838: jump @33 if a1 <u 4\n      : @28 (gas: 4)\n   842: i32 a0 = sp + 0\n   844: a1 = 0\n   846: ecalli 2 // 'call_data_load'\n   848: fallthrough\n      : @29 (gas: 2)\n   849: a0 = i32 [sp + 0x1c]\n   852: jump @35 if a0 == 2996473844\n      : @30 (gas: 1)\n   859: jump @34 if a0 == 3991082242\n      : @31 (gas: 1)\n   866: jump @33 if a0 != 621362715\n      : @32 (gas: 1)\n   873: ra = 20, jump @38\n      : @33 [@dyn 10] (gas: 1)\n   878: ra = 22, jump @67\n      : @34 [@dyn 11] (gas: 1)\n   883: ra = 24, jump @58\n      : @35 [@dyn 12] (gas: 1)\n   888: ra = 26, jump @48\n      : @36 [@dyn 13] (gas: 7)\n   893: sp = sp + 0xfffffffffffffff0\n   896: u64 [sp + 0x8] = ra\n   899: u64 [sp] = s0\n   901: s0 = a0\n   903: a0 = 0x40\n   906: a1 = 0x20\n   909: ra = 28, jump @0\n      : @37 [@dyn 14] (gas: 100)\n   914: a1 = u8 [a0 + 0x1]\n   917: a2 = u8 [a0]\n   919: a3 = u8 [a0 + 0x2]\n   922: a4 = u8 [a0 + 0x3]\n   925: a1 = a1 << 0x8\n   928: a1 = a1 | a2\n   931: a3 = a3 << 0x10\n   934: a4 = a4 << 0x18\n   937: a3 = a3 | a4\n   940: a1 = a1 | a3\n   943: a2 = u8 [a0 + 0x5]\n   946: a3 = u8 [a0 + 0x4]\n   949: a4 = u8 [a0 + 0x6]\n   952: a5 = u8 [a0 + 0x7]\n   955: a2 = a2 << 0x8\n   958: a2 = a2 | a3\n   961: a4 = a4 << 0x10\n   964: a5 = a5 << 0x18\n   967: a4 = a4 | a5\n   970: a2 = a2 | a4\n   973: a2 = a2 << 0x20\n   976: t0 = a2 | a1\n   979: a2 = u8 [a0 + 0x9]\n   982: a3 = u8 [a0 + 0x8]\n   985: a4 = u8 [a0 + 0xa]\n   988: a5 = u8 [a0 + 0xb]\n   991: a2 = a2 << 0x8\n   994: a2 = a2 | a3\n   997: a4 = a4 << 0x10\n  1000: a5 = a5 << 0x18\n  1003: a4 = a4 | a5\n  1006: a2 = a2 | a4\n  1009: a3 = u8 [a0 + 0xd]\n  1012: a4 = u8 [a0 + 0xc]\n  1015: a5 = u8 [a0 + 0xe]\n  1018: a1 = u8 [a0 + 0xf]\n  1021: a3 = a3 << 0x8\n  1024: a3 = a3 | a4\n  1027: a5 = a5 << 0x10\n  1030: a1 = a1 << 0x18\n  1033: a1 = a1 | a5\n  1036: a1 = a1 | a3\n  1039: a1 = a1 << 0x20\n  1042: t1 = a1 | a2\n  1045: a1 = u8 [a0 + 0x11]\n  1048: a3 = u8 [a0 + 0x10]\n  1051: a4 = u8 [a0 + 0x12]\n  1054: a5 = u8 [a0 + 0x13]\n  1057: a1 = a1 << 0x8\n  1060: a1 = a1 | a3\n  1063: a4 = a4 << 0x10\n  1066: a5 = a5 << 0x18\n  1069: a4 = a4 | a5\n  1072: a1 = a1 | a4\n  1075: a3 = u8 [a0 + 0x15]\n  1078: a4 = u8 [a0 + 0x14]\n  1081: a5 = u8 [a0 + 0x16]\n  1084: a2 = u8 [a0 + 0x17]\n  1087: a3 = a3 << 0x8\n  1090: a3 = a3 | a4\n  1093: a5 = a5 << 0x10\n  1096: a2 = a2 << 0x18\n  1099: a2 = a2 | a5\n  1102: a2 = a2 | a3\n  1105: a2 = a2 << 0x20\n  1108: a3 = a2 | a1\n  1111: a1 = u8 [a0 + 0x19]\n  1114: a2 = u8 [a0 + 0x18]\n  1117: a4 = u8 [a0 + 0x1a]\n  1120: a5 = u8 [a0 + 0x1b]\n  1123: a1 = a1 << 0x8\n  1126: a1 = a1 | a2\n  1129: a4 = a4 << 0x10\n  1132: a5 = a5 << 0x18\n  1135: a4 = a4 | a5\n  1138: a1 = a1 | a4\n  1141: a2 = u8 [a0 + 0x1d]\n  1144: a4 = u8 [a0 + 0x1c]\n  1147: a5 = u8 [a0 + 0x1e]\n  1150: a0 = u8 [a0 + 0x1f]\n  1153: a2 = a2 << 0x8\n  1156: a2 = a2 | a4\n  1159: a5 = a5 << 0x10\n  1162: a0 = a0 << 0x18\n  1165: a0 = a0 | a5\n  1168: a0 = a0 | a2\n  1171: a0 = a0 << 0x20\n  1174: a0 = a0 | a1\n  1177: a0 = reverse a0\n  1179: a1 = reverse a3\n  1181: a2 = reverse t1\n  1183: a3 = reverse t0\n  1185: u64 [s0 + 0x18] = a3\n  1188: u64 [s0 + 0x10] = a2\n  1191: u64 [s0 + 0x8] = a1\n  1194: u64 [s0] = a0\n  1196: ra = u64 [sp + 0x8]\n  1199: s0 = u64 [sp]\n  1201: sp = sp + 0x10\n  1204: ret\n      : @38 (gas: 5)\n  1206: sp = sp + 0xfffffffffffffff0\n  1209: u64 [sp + 0x8] = ra\n  1212: u64 [sp] = s0\n  1214: a0 = i32 [0x20008]\n  1219: jump @42 if a0 <=u 3\n      : @39 (gas: 3)\n  1224: a0 = 0x40\n  1227: a1 = 0x20\n  1230: ra = 30, jump @0\n      : @40 [@dyn 15] (gas: 100)\n  1235: a1 = u8 [a0 + 0x11]\n  1238: a2 = u8 [a0 + 0x10]\n  1241: a3 = u8 [a0 + 0x12]\n  1244: a4 = u8 [a0 + 0x13]\n  1247: a1 = a1 << 0x8\n  1250: a1 = a1 | a2\n  1253: a3 = a3 << 0x10\n  1256: a4 = a4 << 0x18\n  1259: a3 = a3 | a4\n  1262: a1 = a1 | a3\n  1265: a2 = u8 [a0 + 0x15]\n  1268: a3 = u8 [a0 + 0x14]\n  1271: a4 = u8 [a0 + 0x16]\n  1274: a5 = u8 [a0 + 0x17]\n  1277: a2 = a2 << 0x8\n  1280: a2 = a2 | a3\n  1283: a4 = a4 << 0x10\n  1286: a5 = a5 << 0x18\n  1289: a4 = a4 | a5\n  1292: a2 = a2 | a4\n  1295: a2 = a2 << 0x20\n  1298: t0 = a2 | a1\n  1301: a2 = u8 [a0 + 0x1]\n  1304: a3 = u8 [a0]\n  1306: a4 = u8 [a0 + 0x2]\n  1309: a5 = u8 [a0 + 0x3]\n  1312: a2 = a2 << 0x8\n  1315: a2 = a2 | a3\n  1318: a4 = a4 << 0x10\n  1321: a5 = a5 << 0x18\n  1324: a4 = a4 | a5\n  1327: a2 = a2 | a4\n  1330: a3 = u8 [a0 + 0x5]\n  1333: a4 = u8 [a0 + 0x4]\n  1336: a5 = u8 [a0 + 0x6]\n  1339: s0 = u8 [a0 + 0x7]\n  1342: a3 = a3 << 0x8\n  1345: a3 = a3 | a4\n  1348: a5 = a5 << 0x10\n  1351: s0 = s0 << 0x18\n  1354: a5 = a5 | s0\n  1357: a3 = a3 | a5\n  1360: a3 = a3 << 0x20\n  1363: a2 = a2 | a3\n  1366: a3 = u8 [a0 + 0x19]\n  1369: a4 = u8 [a0 + 0x18]\n  1372: a5 = u8 [a0 + 0x1a]\n  1375: s0 = u8 [a0 + 0x1b]\n  1378: a3 = a3 << 0x8\n  1381: a3 = a3 | a4\n  1384: a5 = a5 << 0x10\n  1387: s0 = s0 << 0x18\n  1390: a5 = a5 | s0\n  1393: a3 = a3 | a5\n  1396: a4 = u8 [a0 + 0x1d]\n  1399: a5 = u8 [a0 + 0x1c]\n  1402: s0 = u8 [a0 + 0x1e]\n  1405: a1 = u8 [a0 + 0x1f]\n  1408: a4 = a4 << 0x8\n  1411: a4 = a4 | a5\n  1414: s0 = s0 << 0x10\n  1417: a1 = a1 << 0x18\n  1420: a1 = a1 | s0\n  1423: a1 = a1 | a4\n  1426: a1 = a1 << 0x20\n  1429: a3 = a3 | a1\n  1432: a1 = u8 [a0 + 0x9]\n  1435: a4 = u8 [a0 + 0x8]\n  1438: a5 = u8 [a0 + 0xa]\n  1441: s0 = u8 [a0 + 0xb]\n  1444: a1 = a1 << 0x8\n  1447: a1 = a1 | a4\n  1450: a5 = a5 << 0x10\n  1453: s0 = s0 << 0x18\n  1456: a5 = a5 | s0\n  1459: a1 = a1 | a5\n  1462: a4 = u8 [a0 + 0xd]\n  1465: a5 = u8 [a0 + 0xc]\n  1468: s0 = u8 [a0 + 0xe]\n  1471: a0 = u8 [a0 + 0xf]\n  1474: a4 = a4 << 0x8\n  1477: a4 = a4 | a5\n  1480: s0 = s0 << 0x10\n  1483: a0 = a0 << 0x18\n  1486: a0 = a0 | s0\n  1489: a0 = a0 | a4\n  1492: a0 = a0 << 0x20\n  1495: a0 = a0 | a1\n  1498: a0 = reverse a0\n  1500: s0 = reverse a3\n  1502: a1 = reverse a2\n  1504: a2 = reverse t0\n  1506: a1 = a1 | a2\n  1509: a2 = s0 | a0\n  1512: a2 = a2 | a1\n  1515: a2 = a2 >> 0x20\n  1518: a0 = a0 | a1\n  1521: a0 = a0 << 0x20\n  1524: a0 = a0 | a2\n  1527: jump @44 if a0 == 0\n      : @41 (gas: 1)\n  1530: trap\n      : @42 (gas: 3)\n  1531: a0 = 0\n  1533: a1 = 0\n  1535: ra = 32, jump @0\n      : @43 [@dyn 16] (gas: 5)\n  1540: i32 a1 = a0 + 0\n  1542: a0 = 0x1\n  1545: a2 = 0\n  1547: ecalli 4 // 'seal_return'\n  1549: fallthrough\n      : @44 (gas: 4)\n  1550: i32 s0 = s0 + 0\n  1552: a1 = 0x20\n  1555: a0 = s0\n  1557: ra = 34, jump @0\n      : @45 [@dyn 17] (gas: 35)\n  1562: u8 [a0 + 31] = 0x24\n  1566: u8 [a0 + 30] = 0\n  1569: u8 [a0 + 29] = 0\n  1572: u8 [a0 + 28] = 0\n  1575: u8 [a0 + 27] = 0\n  1578: u8 [a0 + 26] = 0\n  1581: u8 [a0 + 25] = 0\n  1584: u8 [a0 + 24] = 0\n  1587: u8 [a0 + 23] = 0\n  1590: u8 [a0 + 22] = 0\n  1593: u8 [a0 + 21] = 0\n  1596: u8 [a0 + 20] = 0\n  1599: u8 [a0 + 19] = 0\n  1602: u8 [a0 + 18] = 0\n  1605: u8 [a0 + 17] = 0\n  1608: u8 [a0 + 16] = 0\n  1611: u8 [a0 + 15] = 0\n  1614: u8 [a0 + 14] = 0\n  1617: u8 [a0 + 13] = 0\n  1620: u8 [a0 + 12] = 0\n  1623: u8 [a0 + 11] = 0\n  1626: u8 [a0 + 10] = 0\n  1629: u8 [a0 + 9] = 0\n  1632: u8 [a0 + 8] = 0\n  1635: u8 [a0 + 7] = 0\n  1638: u8 [a0 + 6] = 0\n  1641: u8 [a0 + 5] = 0\n  1644: u8 [a0 + 4] = 0\n  1647: u8 [a0 + 3] = 0\n  1650: u8 [a0 + 2] = 0\n  1653: u8 [a0 + 1] = 0\n  1656: u8 [a0 + 0] = 0\n  1658: a1 = 0x20\n  1661: a0 = s0\n  1663: ra = 36, jump @0\n      : @46 [@dyn 18] (gas: 6)\n  1668: i32 a1 = a0 + 0\n  1670: a2 = 0x20\n  1673: a0 = 0\n  1675: ra = 0x26\n  1678: ecalli 4 // 'seal_return'\n  1680: fallthrough\n      : @47 [@dyn 19] (gas: 9)\n  1681: a2 = u64 [a1 + 0x18]\n  1684: a3 = u64 [a1 + 0x10]\n  1687: a4 = u64 [a1 + 0x8]\n  1690: a1 = u64 [a1]\n  1692: u64 [a0 + 0x18] = a2\n  1695: u64 [a0 + 0x10] = a3\n  1698: u64 [a0 + 0x8] = a4\n  1701: u64 [a0] = a1\n  1703: ret\n      : @48 (gas: 5)\n  1705: sp = sp + 0xfffffffffffffff0\n  1708: u64 [sp + 0x8] = ra\n  1711: u64 [sp] = s0\n  1713: a0 = i32 [0x20008]\n  1718: jump @52 if a0 <=u 3\n      : @49 (gas: 3)\n  1723: a0 = 0x40\n  1726: a1 = 0x20\n  1729: ra = 40, jump @0\n      : @50 [@dyn 20] (gas: 100)\n  1734: a1 = u8 [a0 + 0x11]\n  1737: a2 = u8 [a0 + 0x10]\n  1740: a3 = u8 [a0 + 0x12]\n  1743: a4 = u8 [a0 + 0x13]\n  1746: a1 = a1 << 0x8\n  1749: a1 = a1 | a2\n  1752: a3 = a3 << 0x10\n  1755: a4 = a4 << 0x18\n  1758: a3 = a3 | a4\n  1761: a1 = a1 | a3\n  1764: a2 = u8 [a0 + 0x15]\n  1767: a3 = u8 [a0 + 0x14]\n  1770: a4 = u8 [a0 + 0x16]\n  1773: a5 = u8 [a0 + 0x17]\n  1776: a2 = a2 << 0x8\n  1779: a2 = a2 | a3\n  1782: a4 = a4 << 0x10\n  1785: a5 = a5 << 0x18\n  1788: a4 = a4 | a5\n  1791: a2 = a2 | a4\n  1794: a2 = a2 << 0x20\n  1797: t0 = a2 | a1\n  1800: a2 = u8 [a0 + 0x1]\n  1803: a3 = u8 [a0]\n  1805: a4 = u8 [a0 + 0x2]\n  1808: a5 = u8 [a0 + 0x3]\n  1811: a2 = a2 << 0x8\n  1814: a2 = a2 | a3\n  1817: a4 = a4 << 0x10\n  1820: a5 = a5 << 0x18\n  1823: a4 = a4 | a5\n  1826: a2 = a2 | a4\n  1829: a3 = u8 [a0 + 0x5]\n  1832: a4 = u8 [a0 + 0x4]\n  1835: a5 = u8 [a0 + 0x6]\n  1838: s0 = u8 [a0 + 0x7]\n  1841: a3 = a3 << 0x8\n  1844: a3 = a3 | a4\n  1847: a5 = a5 << 0x10\n  1850: s0 = s0 << 0x18\n  1853: a5 = a5 | s0\n  1856: a3 = a3 | a5\n  1859: a3 = a3 << 0x20\n  1862: a2 = a2 | a3\n  1865: a3 = u8 [a0 + 0x19]\n  1868: a4 = u8 [a0 + 0x18]\n  1871: a5 = u8 [a0 + 0x1a]\n  1874: s0 = u8 [a0 + 0x1b]\n  1877: a3 = a3 << 0x8\n  1880: a3 = a3 | a4\n  1883: a5 = a5 << 0x10\n  1886: s0 = s0 << 0x18\n  1889: a5 = a5 | s0\n  1892: a3 = a3 | a5\n  1895: a4 = u8 [a0 + 0x1d]\n  1898: a5 = u8 [a0 + 0x1c]\n  1901: s0 = u8 [a0 + 0x1e]\n  1904: a1 = u8 [a0 + 0x1f]\n  1907: a4 = a4 << 0x8\n  1910: a4 = a4 | a5\n  1913: s0 = s0 << 0x10\n  1916: a1 = a1 << 0x18\n  1919: a1 = a1 | s0\n  1922: a1 = a1 | a4\n  1925: a1 = a1 << 0x20\n  1928: a3 = a3 | a1\n  1931: a1 = u8 [a0 + 0x9]\n  1934: a4 = u8 [a0 + 0x8]\n  1937: a5 = u8 [a0 + 0xa]\n  1940: s0 = u8 [a0 + 0xb]\n  1943: a1 = a1 << 0x8\n  1946: a1 = a1 | a4\n  1949: a5 = a5 << 0x10\n  1952: s0 = s0 << 0x18\n  1955: a5 = a5 | s0\n  1958: a1 = a1 | a5\n  1961: a4 = u8 [a0 + 0xd]\n  1964: a5 = u8 [a0 + 0xc]\n  1967: s0 = u8 [a0 + 0xe]\n  1970: a0 = u8 [a0 + 0xf]\n  1973: a4 = a4 << 0x8\n  1976: a4 = a4 | a5\n  1979: s0 = s0 << 0x10\n  1982: a0 = a0 << 0x18\n  1985: a0 = a0 | s0\n  1988: a0 = a0 | a4\n  1991: a0 = a0 << 0x20\n  1994: a0 = a0 | a1\n  1997: a0 = reverse a0\n  1999: s0 = reverse a3\n  2001: a1 = reverse a2\n  2003: a2 = reverse t0\n  2005: a1 = a1 | a2\n  2008: a2 = s0 | a0\n  2011: a2 = a2 | a1\n  2014: a2 = a2 >> 0x20\n  2017: a0 = a0 | a1\n  2020: a0 = a0 << 0x20\n  2023: a0 = a0 | a2\n  2026: jump @54 if a0 == 0\n      : @51 (gas: 1)\n  2029: trap\n      : @52 (gas: 3)\n  2030: a0 = 0\n  2032: a1 = 0\n  2034: ra = 42, jump @0\n      : @53 [@dyn 21] (gas: 5)\n  2039: i32 a1 = a0 + 0\n  2041: a0 = 0x1\n  2044: a2 = 0\n  2046: ecalli 4 // 'seal_return'\n  2048: fallthrough\n      : @54 (gas: 4)\n  2049: i32 s0 = s0 + 0\n  2051: a1 = 0x20\n  2054: a0 = s0\n  2056: ra = 44, jump @0\n      : @55 [@dyn 22] (gas: 35)\n  2061: u8 [a0 + 31] = 0x14\n  2065: u8 [a0 + 30] = 0\n  2068: u8 [a0 + 29] = 0\n  2071: u8 [a0 + 28] = 0\n  2074: u8 [a0 + 27] = 0\n  2077: u8 [a0 + 26] = 0\n  2080: u8 [a0 + 25] = 0\n  2083: u8 [a0 + 24] = 0\n  2086: u8 [a0 + 23] = 0\n  2089: u8 [a0 + 22] = 0\n  2092: u8 [a0 + 21] = 0\n  2095: u8 [a0 + 20] = 0\n  2098: u8 [a0 + 19] = 0\n  2101: u8 [a0 + 18] = 0\n  2104: u8 [a0 + 17] = 0\n  2107: u8 [a0 + 16] = 0\n  2110: u8 [a0 + 15] = 0\n  2113: u8 [a0 + 14] = 0\n  2116: u8 [a0 + 13] = 0\n  2119: u8 [a0 + 12] = 0\n  2122: u8 [a0 + 11] = 0\n  2125: u8 [a0 + 10] = 0\n  2128: u8 [a0 + 9] = 0\n  2131: u8 [a0 + 8] = 0\n  2134: u8 [a0 + 7] = 0\n  2137: u8 [a0 + 6] = 0\n  2140: u8 [a0 + 5] = 0\n  2143: u8 [a0 + 4] = 0\n  2146: u8 [a0 + 3] = 0\n  2149: u8 [a0 + 2] = 0\n  2152: u8 [a0 + 1] = 0\n  2155: u8 [a0 + 0] = 0\n  2157: a1 = 0x20\n  2160: a0 = s0\n  2162: ra = 46, jump @0\n      : @56 [@dyn 23] (gas: 6)\n  2167: i32 a1 = a0 + 0\n  2169: a2 = 0x20\n  2172: a0 = 0\n  2174: ra = 0x30\n  2177: ecalli 4 // 'seal_return'\n  2179: fallthrough\n      : @57 [@dyn 24] (gas: 9)\n  2180: a2 = u64 [a1 + 0x18]\n  2183: a3 = u64 [a1 + 0x10]\n  2186: a4 = u64 [a1 + 0x8]\n  2189: a1 = u64 [a1]\n  2191: u64 [a0 + 0x18] = a2\n  2194: u64 [a0 + 0x10] = a3\n  2197: u64 [a0 + 0x8] = a4\n  2200: u64 [a0] = a1\n  2202: ret\n      : @58 (gas: 5)\n  2204: sp = sp + 0xfffffffffffffff0\n  2207: u64 [sp + 0x8] = ra\n  2210: u64 [sp] = s0\n  2212: a0 = i32 [0x20008]\n  2217: jump @62 if a0 <=u 3\n      : @59 (gas: 3)\n  2222: a0 = 0x40\n  2225: a1 = 0x20\n  2228: ra = 50, jump @0\n      : @60 [@dyn 25] (gas: 100)\n  2233: a1 = u8 [a0 + 0x11]\n  2236: a2 = u8 [a0 + 0x10]\n  2239: a3 = u8 [a0 + 0x12]\n  2242: a4 = u8 [a0 + 0x13]\n  2245: a1 = a1 << 0x8\n  2248: a1 = a1 | a2\n  2251: a3 = a3 << 0x10\n  2254: a4 = a4 << 0x18\n  2257: a3 = a3 | a4\n  2260: a1 = a1 | a3\n  2263: a2 = u8 [a0 + 0x15]\n  2266: a3 = u8 [a0 + 0x14]\n  2269: a4 = u8 [a0 + 0x16]\n  2272: a5 = u8 [a0 + 0x17]\n  2275: a2 = a2 << 0x8\n  2278: a2 = a2 | a3\n  2281: a4 = a4 << 0x10\n  2284: a5 = a5 << 0x18\n  2287: a4 = a4 | a5\n  2290: a2 = a2 | a4\n  2293: a2 = a2 << 0x20\n  2296: t0 = a2 | a1\n  2299: a2 = u8 [a0 + 0x1]\n  2302: a3 = u8 [a0]\n  2304: a4 = u8 [a0 + 0x2]\n  2307: a5 = u8 [a0 + 0x3]\n  2310: a2 = a2 << 0x8\n  2313: a2 = a2 | a3\n  2316: a4 = a4 << 0x10\n  2319: a5 = a5 << 0x18\n  2322: a4 = a4 | a5\n  2325: a2 = a2 | a4\n  2328: a3 = u8 [a0 + 0x5]\n  2331: a4 = u8 [a0 + 0x4]\n  2334: a5 = u8 [a0 + 0x6]\n  2337: s0 = u8 [a0 + 0x7]\n  2340: a3 = a3 << 0x8\n  2343: a3 = a3 | a4\n  2346: a5 = a5 << 0x10\n  2349: s0 = s0 << 0x18\n  2352: a5 = a5 | s0\n  2355: a3 = a3 | a5\n  2358: a3 = a3 << 0x20\n  2361: a2 = a2 | a3\n  2364: a3 = u8 [a0 + 0x19]\n  2367: a4 = u8 [a0 + 0x18]\n  2370: a5 = u8 [a0 + 0x1a]\n  2373: s0 = u8 [a0 + 0x1b]\n  2376: a3 = a3 << 0x8\n  2379: a3 = a3 | a4\n  2382: a5 = a5 << 0x10\n  2385: s0 = s0 << 0x18\n  2388: a5 = a5 | s0\n  2391: a3 = a3 | a5\n  2394: a4 = u8 [a0 + 0x1d]\n  2397: a5 = u8 [a0 + 0x1c]\n  2400: s0 = u8 [a0 + 0x1e]\n  2403: a1 = u8 [a0 + 0x1f]\n  2406: a4 = a4 << 0x8\n  2409: a4 = a4 | a5\n  2412: s0 = s0 << 0x10\n  2415: a1 = a1 << 0x18\n  2418: a1 = a1 | s0\n  2421: a1 = a1 | a4\n  2424: a1 = a1 << 0x20\n  2427: a3 = a3 | a1\n  2430: a1 = u8 [a0 + 0x9]\n  2433: a4 = u8 [a0 + 0x8]\n  2436: a5 = u8 [a0 + 0xa]\n  2439: s0 = u8 [a0 + 0xb]\n  2442: a1 = a1 << 0x8\n  2445: a1 = a1 | a4\n  2448: a5 = a5 << 0x10\n  2451: s0 = s0 << 0x18\n  2454: a5 = a5 | s0\n  2457: a1 = a1 | a5\n  2460: a4 = u8 [a0 + 0xd]\n  2463: a5 = u8 [a0 + 0xc]\n  2466: s0 = u8 [a0 + 0xe]\n  2469: a0 = u8 [a0 + 0xf]\n  2472: a4 = a4 << 0x8\n  2475: a4 = a4 | a5\n  2478: s0 = s0 << 0x10\n  2481: a0 = a0 << 0x18\n  2484: a0 = a0 | s0\n  2487: a0 = a0 | a4\n  2490: a0 = a0 << 0x20\n  2493: a0 = a0 | a1\n  2496: a0 = reverse a0\n  2498: s0 = reverse a3\n  2500: a1 = reverse a2\n  2502: a2 = reverse t0\n  2504: a1 = a1 | a2\n  2507: a2 = s0 | a0\n  2510: a2 = a2 | a1\n  2513: a2 = a2 >> 0x20\n  2516: a0 = a0 | a1\n  2519: a0 = a0 << 0x20\n  2522: a0 = a0 | a2\n  2525: jump @64 if a0 == 0\n      : @61 (gas: 1)\n  2528: trap\n      : @62 (gas: 3)\n  2529: a0 = 0\n  2531: a1 = 0\n  2533: ra = 52, jump @0\n      : @63 [@dyn 26] (gas: 5)\n  2538: i32 a1 = a0 + 0\n  2540: a0 = 0x1\n  2543: a2 = 0\n  2545: ecalli 4 // 'seal_return'\n  2547: fallthrough\n      : @64 (gas: 4)\n  2548: i32 s0 = s0 + 0\n  2550: a1 = 0x20\n  2553: a0 = s0\n  2555: ra = 54, jump @0\n      : @65 [@dyn 27] (gas: 35)\n  2560: u8 [a0 + 31] = 0x34\n  2564: u8 [a0 + 30] = 0\n  2567: u8 [a0 + 29] = 0\n  2570: u8 [a0 + 28] = 0\n  2573: u8 [a0 + 27] = 0\n  2576: u8 [a0 + 26] = 0\n  2579: u8 [a0 + 25] = 0\n  2582: u8 [a0 + 24] = 0\n  2585: u8 [a0 + 23] = 0\n  2588: u8 [a0 + 22] = 0\n  2591: u8 [a0 + 21] = 0\n  2594: u8 [a0 + 20] = 0\n  2597: u8 [a0 + 19] = 0\n  2600: u8 [a0 + 18] = 0\n  2603: u8 [a0 + 17] = 0\n  2606: u8 [a0 + 16] = 0\n  2609: u8 [a0 + 15] = 0\n  2612: u8 [a0 + 14] = 0\n  2615: u8 [a0 + 13] = 0\n  2618: u8 [a0 + 12] = 0\n  2621: u8 [a0 + 11] = 0\n  2624: u8 [a0 + 10] = 0\n  2627: u8 [a0 + 9] = 0\n  2630: u8 [a0 + 8] = 0\n  2633: u8 [a0 + 7] = 0\n  2636: u8 [a0 + 6] = 0\n  2639: u8 [a0 + 5] = 0\n  2642: u8 [a0 + 4] = 0\n  2645: u8 [a0 + 3] = 0\n  2648: u8 [a0 + 2] = 0\n  2651: u8 [a0 + 1] = 0\n  2654: u8 [a0 + 0] = 0\n  2656: a1 = 0x20\n  2659: a0 = s0\n  2661: ra = 56, jump @0\n      : @66 [@dyn 28] (gas: 6)\n  2666: i32 a1 = a0 + 0\n  2668: a2 = 0x20\n  2671: a0 = 0\n  2673: ra = 0x3a\n  2676: ecalli 4 // 'seal_return'\n  2678: fallthrough\n      : @67 [@dyn 29] (gas: 5)\n  2679: sp = sp + 0xfffffffffffffff8\n  2682: u64 [sp] = ra\n  2684: a0 = 0\n  2686: a1 = 0\n  2688: ra = 60, jump @0\n      : @68 [@dyn 30] (gas: 7)\n  2693: i32 a1 = a0 + 0\n  2695: a0 = 0x1\n  2698: a2 = 0\n  2700: ecalli 4 // 'seal_return'\n  2702: a0 = 0\n  2704: ra = 0x3e\n  2707: jump @8\n      : @69 [export #0: 'call'] (gas: 2)\n  2710: a0 = 0\n  2712: ra = 62, jump @8\n      : @70 [@dyn 31] [export #1: 'deploy'] (gas: 2)\n  2717: a0 = 0x1\n  2720: ra = 64, jump @8\n      : @71 [@dyn 32] (gas: 9)\n  2725: sp = sp + 0xffffffffffffffc0\n  2728: u64 [sp + 0x38] = ra\n  2731: u64 [sp + 0x30] = s0\n  2734: u64 [sp + 0x28] = s1\n  2737: s0 = sp + 0x40\n  2740: sp = sp & 0xfffffffffffffff0\n  2743: s1 = a0\n  2745: a0 = sp\n  2747: ra = 66, jump @36\n      : @72 [@dyn 33] (gas: 14)\n  2752: a0 = u64 [sp + 0x10]\n  2755: a1 = u64 [sp + 0x18]\n  2758: a2 = u64 [sp]\n  2760: a3 = u64 [sp + 0x8]\n  2763: u64 [s1 + 0x10] = a0\n  2766: u64 [s1 + 0x18] = a1\n  2769: u64 [s1] = a2\n  2771: u64 [s1 + 0x8] = a3\n  2774: sp = s0 + 0xffffffffffffffc0\n  2777: ra = u64 [sp + 0x38]\n  2780: s0 = u64 [sp + 0x30]\n  2783: s1 = u64 [sp + 0x28]\n  2786: sp = sp + 0x40\n  2789: ret\n",
				"bytecode": {
					"object": "50564d00003b0d000000000000010700c13000c00040030420000000047c0700000000070000001500000023000000310000003c0000004e0000006164647265737363616c6c5f646174615f636f707963616c6c5f646174615f6c6f616463616c6c5f646174615f73697a657365616c5f72657475726e7365745f696d6d757461626c655f6461746176616c75655f7472616e736665727265640511028a960463616c6c8a9d066465706c6f79068c8a21028ae75a005f007b000f0140025502ba02c602e0026e03730378037d039203d30404061a0684069106c606f7070d0877088408b908ea09000a6a0a770a850a9d0aa50ac00a8b791052093b3309010001ae9833c8780883881f8488e0553801000128390a040002ae8a123d080400023308100002c8870732003308100002c88707320000009511f07b10087b158475010a03013d07080002510507501002095010046c029511a07b10587b15507b16489515608411e03307403308205010068946171f800046171e46171d46171c46171b46171a46171946171846171746171646171546171446171346171246171146171046170f46170e46170d46170c46170b46170a4617094617084617074617064617054617044617034617024617014607491118490149110849111083170a0601821710821818821908821ad49808d4a707d4870752073701330740330820501008f6fe7c78117c79107c7a127c7b13978808d4980897aa1097bb18d4ba0ad4a8087c79157c7a147c7b167c7c17979908d4a90997bb1097cc18d4cb0bd4b909979920d489027c79017c7a7c7b027c7c03979908d4a90997bb1097cc18d4cb0bd4b9097c7a057c7b047c7c067c760797aa08d4ba0a97cc10976618d46c0cd4ca0a97aa20d4a9097c7a197c7b187c7c1a7c761b97aa08d4ba0a97cc10976618d46c0cd4ca0a7c7b1d7c7c1c7c761e7c781f97bb08d4cb0b976610978818d46808d4b808978820d48a0a7c78097c7b087c7c0a7c760b978808d4b80897cc10976618d46c0cd4c8087c7b0d7c7c0c7c760e7c770f97bb08d4cb0b976610977718d46707d4b707977720d487076f776fa66f986f29d49808d47609d48909989920d48707977720d49707510717003307330850100ac5fd837833070133090a040183666467330850100cb0fd8377330833090a018317200a018217288118308219206f77977a206f88988820d48a0a9878206f99979b20330c0000023307100003d48b0b98992039080000023e0920000321032800033e0b1800033e0a10000351080883770a05016467330850100e4bfd8378330733093300100a04019511c07b10387b15309515408411e033074033082050101225fd46171f800046171e46171d46171c46171b46171a46171946171846171746171646171546171446171346171246171146171046170f46170e46170d46170c46170b46170a4617094617084617074617034617024617014607390808000246170646170546170453180428831733080a020181171c5147f48f9ab22451470215e3ed1852471b3e09250c5010144d015010160907501018290550101a31039511f07b10087b15647533074033082050101c73fc7c78017c797c7a027c7b03978808d4980897aa1097bb18d4ba0ad4a8087c79057c7a047c7b067c7c07979908d4a90997bb1097cc18d4cb0bd4b909979920d489027c79097c7a087c7b0a7c7c0b979908d4a90997bb1097cc18d4cb0bd4b9097c7a0d7c7b0c7c7c0e7c780f97aa08d4ba0a97cc10978818d4c808d4a808978820d498037c78117c7a107c7b127c7c13978808d4a80897bb1097cc18d4cb0bd4b8087c7a157c7b147c7c167c791797aa08d4ba0a97cc10979918d4c909d4a909979920d4890a7c78197c79187c7b1a7c7c1b978808d4980897bb1097cc18d4cb0bd4b8087c791d7c7b1c7c7c1e7c771f979908d4b90997cc10977718d4c707d49707977720d487076f776fa86f396f2a7b5a187b59107b58087b57821008821595111032009511f07b10087b153907080002541703380133074033082050101e32fb7c78117c79107c7a127c7b13978808d4980897aa1097bb18d4ba0ad4a8087c79157c7a147c7b167c7c17979908d4a90997bb1097cc18d4cb0bd4b909979920d489027c79017c7a7c7b027c7c03979908d4a90997bb1097cc18d4cb0bd4b9097c7a057c7b047c7c067c750797aa08d4ba0a97cc10975518d45c0cd4ca0a97aa20d4a9097c7a197c7b187c7c1a7c751b97aa08d4ba0a97cc10975518d45c0cd4ca0a7c7b1d7c7c1c7c751e7c781f97bb08d4cb0b975510978818d45808d4b808978820d48a0a7c78097c7b087c7c0a7c750b978808d4b80897cc10975518d45c0cd4c8087c7b0d7c7c0c7c750e7c770f97bb08d4cb0b975510977718d45707d4b707977720d487076f776fa56f986f29d49808d47509d48909989920d48707977720d49707510717003307330850102001fa837833070133090a040183553308206457501022ebf946171f2446171e46171d46171c46171b46171a46171946171846171746171646171546171446171346171246171146171046170f46170e46170d46170c46170b46170a4617094617084617074617064617054617044617034617024617014607330820645750102481f9837833092033073300260a0401828918828a10828b0882887b79187b7a107b7b087b7832009511f07b10087b15390708000254170338013307403308205010283ff97c78117c79107c7a127c7b13978808d4980897aa1097bb18d4ba0ad4a8087c79157c7a147c7b167c7c17979908d4a90997bb1097cc18d4cb0bd4b909979920d489027c79017c7a7c7b027c7c03979908d4a90997bb1097cc18d4cb0bd4b9097c7a057c7b047c7c067c750797aa08d4ba0a97cc10975518d45c0cd4ca0a97aa20d4a9097c7a197c7b187c7c1a7c751b97aa08d4ba0a97cc10975518d45c0cd4ca0a7c7b1d7c7c1c7c751e7c781f97bb08d4cb0b975510978818d45808d4b808978820d48a0a7c78097c7b087c7c0a7c750b978808d4b80897cc10975518d45c0cd4c8087c7b0d7c7c0c7c750e7c770f97bb08d4cb0b975510977718d45707d4b707977720d487076f776fa56f986f29d49808d47509d48909989920d48707977720d49707510717003307330850102a0ef8837833070133090a04018355330820645750102cf8f746171f1446171e46171d46171c46171b46171a46171946171846171746171646171546171446171346171246171146171046170f46170e46170d46170c46170b46170a4617094617084617074617064617054617044617034617024617014607330820645750102e8ef7837833092033073300300a0401828918828a10828b0882887b79187b7a107b7b087b7832009511f07b10087b15390708000254170338013307403308205010324cf77c78117c79107c7a127c7b13978808d4980897aa1097bb18d4ba0ad4a8087c79157c7a147c7b167c7c17979908d4a90997bb1097cc18d4cb0bd4b909979920d489027c79017c7a7c7b027c7c03979908d4a90997bb1097cc18d4cb0bd4b9097c7a057c7b047c7c067c750797aa08d4ba0a97cc10975518d45c0cd4ca0a97aa20d4a9097c7a197c7b187c7c1a7c751b97aa08d4ba0a97cc10975518d45c0cd4ca0a7c7b1d7c7c1c7c751e7c781f97bb08d4cb0b975510978818d45808d4b808978820d48a0a7c78097c7b087c7c0a7c750b978808d4b80897cc10975518d45c0cd4c8087c7b0d7c7c0c7c750e7c770f97bb08d4cb0b975510977718d45707d4b707977720d487076f776fa56f986f29d49808d47509d48909989920d48707977720d4970751071700330733085010341bf6837833070133090a04018355330820645750103605f646171f3446171e46171d46171c46171b46171a46171946171846171746171646171546171446171346171246171146171046170f46170e46170d46170c46170b46170a461709461708461707461706461705461704461703461702461701460733082064575010389bf58378330920330733003a0a04019511f87b103307330850103c80f5837833070133090a04330733003e28adf5330750103ea8f5330701501040a0f59511c07b10387b15307b16289515408411f064766417501042c2f88217108218188219821a087b67107b68187b697b6a089551c0821038821530821628951140320049489220248414d24969488424499208499224499224499224499294929aa4249184244992244992244952922449922449922449922449922449922449922449922449559224c90aa556a12a272925292124218410522b54699224092149922449922449922449214954130804420821a924a42449922449922449922449922449922449922449922449922449922449922449aa92945252084948922449922449922425499224499224499224499224499224499224499224499254254992ac506a29449224499224499224499224a5504a9394a4924248429224499224499224294992244992244992244992244992244992244992244992a42a49926485524b2192244992244992244992242985529aa42495144212922449922449922449499224499224499224499224499224499224499224499224554992242b945a0a9124499224499224499224492994d254a15449212149920a49494a922400"
				},
				"methodIdentifiers": {
					"PAYMASTER_DATA_OFFSET()": "ede31502",
					"PAYMASTER_POSTOP_GAS_OFFSET()": "25093e1b",
					"PAYMASTER_VALIDATION_GAS_OFFSET()": "b29a8ff4"
				}
			},
			"hash": "ad2973d625a8c410909ac737711e0a893eed71357d9beeec1298bced0b4f2826",
			"factoryDependencies": {}
		}
	}
}