{
	"contracts/core/SenderCreator.sol": {
		"SenderCreator": {
			"abi": [
				{
					"inputs": [
						{
							"internalType": "bytes",
							"name": "initCode",
							"type": "bytes"
						}
					],
					"name": "createSender",
					"outputs": [
						{
							"internalType": "address",
							"name": "sender",
							"type": "address"
						}
					],
					"stateMutability": "nonpayable",
					"type": "function"
				}
			],
			"devdoc": {
				"kind": "dev",
				"methods": {
					"createSender(bytes)": {
						"params": {
							"initCode": "- The initCode value from a UserOp. contains 20 bytes of factory address,                   followed by calldata."
						},
						"returns": {
							"sender": " - The returned address of the created account, or zero address on failure."
						}
					}
				},
				"version": 1
			},
			"userdoc": {
				"kind": "user",
				"methods": {
					"createSender(bytes)": {
						"notice": "Call the \"initCode\" factory to create and return the sender account address."
					}
				},
				"notice": "Helper contract for EntryPoint, to call userOp.initCode from a \"neutral\" address, which is explicitly not the entryPoint itself.",
				"version": 1
			},
			"storageLayout": {
				"storage": [],
				"types": null
			},
			"evm": {
				"assembly": "// RO data = 0/0 bytes\n// RW data = 0/65552 bytes\n// Stack size = 16384 bytes\n\n// Instructions = 2349\n// Code size = 7181 bytes\n\n      : @0 (gas: 2)\n     0: i32 a2 = a0 >> 0x10\n     3: jump @6 if a2 != 0\n      : @1 (gas: 2)\n     6: a2 = 0x10001\n    11: jump @6 if a1 >=u a2\n      : @2 (gas: 4)\n    14: a1 = a1 + a0\n    17: i32 a1 = a1 + 0x1f\n    20: a1 = a1 & 0xffffffffffffffe0\n    23: jump @7 if a1 >=u 65537\n      : @3 (gas: 2)\n    29: a3 = i32 [0x20000]\n    34: jump @5 if a3 >=u a1\n      : @4 (gas: 4)\n    37: u32 [0x20000] = a1\n    42: a1 = 0x20010\n    47: a0 = a0 + a1\n    50: ret\n      : @5 (gas: 3)\n    52: a1 = 0x20010\n    57: a0 = a0 + a1\n    60: ret\n      : @6 (gas: 1)\n    62: trap\n      : @7 (gas: 1)\n    63: trap\n      : @8 (gas: 13)\n    64: sp = sp + 0xffffffffffffffd8\n    67: u64 [sp + 0x20] = ra\n    70: u64 [sp + 0x18] = s0\n    73: u64 [sp + 0x10] = s1\n    76: a2 = u64 [a1]\n    78: u64 [sp + 0x8] = a2\n    81: a2 = u64 [a1 + 0x8]\n    84: u64 [sp] = a2\n    86: s0 = u64 [a1 + 0x10]\n    89: s1 = u64 [a1 + 0x18]\n    92: i32 a0 = a0 + 0\n    94: a1 = 0x20\n    97: ra = 2, jump @0\n      : @9 [@dyn 1] (gas: 71)\n   101: a1 = reverse s1\n   103: a2 = reverse s0\n   105: a3 = u64 [sp]\n   107: a3 = reverse a3\n   109: a4 = u64 [sp + 0x8]\n   112: a4 = reverse a4\n   114: u8 [a0 + 0x18] = a4\n   117: u8 [a0 + 0x10] = a3\n   120: u8 [a0 + 0x8] = a2\n   123: u8 [a0] = a1\n   125: a5 = a4 >> 0x38\n   128: u8 [a0 + 0x1f] = a5\n   131: a5 = a4 >> 0x30\n   134: u8 [a0 + 0x1e] = a5\n   137: a5 = a4 >> 0x28\n   140: u8 [a0 + 0x1d] = a5\n   143: a5 = a4 >> 0x20\n   146: u8 [a0 + 0x1c] = a5\n   149: a5 = a4 >> 0x18\n   152: u8 [a0 + 0x1b] = a5\n   155: a5 = a4 >> 0x10\n   158: u8 [a0 + 0x1a] = a5\n   161: a4 = a4 >> 0x8\n   164: u8 [a0 + 0x19] = a4\n   167: a4 = a3 >> 0x38\n   170: u8 [a0 + 0x17] = a4\n   173: a4 = a3 >> 0x30\n   176: u8 [a0 + 0x16] = a4\n   179: a4 = a3 >> 0x28\n   182: u8 [a0 + 0x15] = a4\n   185: a4 = a3 >> 0x20\n   188: u8 [a0 + 0x14] = a4\n   191: a4 = a3 >> 0x18\n   194: u8 [a0 + 0x13] = a4\n   197: a4 = a3 >> 0x10\n   200: u8 [a0 + 0x12] = a4\n   203: a3 = a3 >> 0x8\n   206: u8 [a0 + 0x11] = a3\n   209: a3 = a2 >> 0x38\n   212: u8 [a0 + 0xf] = a3\n   215: a3 = a2 >> 0x30\n   218: u8 [a0 + 0xe] = a3\n   221: a3 = a2 >> 0x28\n   224: u8 [a0 + 0xd] = a3\n   227: a3 = a2 >> 0x20\n   230: u8 [a0 + 0xc] = a3\n   233: a3 = a2 >> 0x18\n   236: u8 [a0 + 0xb] = a3\n   239: a3 = a2 >> 0x10\n   242: u8 [a0 + 0xa] = a3\n   245: a2 = a2 >> 0x8\n   248: u8 [a0 + 0x9] = a2\n   251: a2 = a1 >> 0x38\n   254: u8 [a0 + 0x7] = a2\n   257: a2 = a1 >> 0x30\n   260: u8 [a0 + 0x6] = a2\n   263: a2 = a1 >> 0x28\n   266: u8 [a0 + 0x5] = a2\n   269: a2 = a1 >> 0x20\n   272: u8 [a0 + 0x4] = a2\n   275: a2 = a1 >> 0x18\n   278: u8 [a0 + 0x3] = a2\n   281: a2 = a1 >> 0x10\n   284: u8 [a0 + 0x2] = a2\n   287: a1 = a1 >> 0x8\n   290: u8 [a0 + 0x1] = a1\n   293: ra = u64 [sp + 0x20]\n   296: s0 = u64 [sp + 0x18]\n   299: s1 = u64 [sp + 0x10]\n   302: sp = sp + 0x28\n   305: ret\n      : @10 (gas: 6)\n   307: sp = sp + 0xfffffffffffffff0\n   310: u64 [sp + 0x8] = ra\n   313: u64 [sp] = s0\n   315: s0 = a0 & 0x1\n   318: ecalli 3 // 'call_data_size'\n   320: fallthrough\n      : @11 (gas: 2)\n   321: u32 [0x20004] = a0\n   326: jump @13 if s0 == 0\n      : @12 (gas: 1)\n   329: ra = 4, jump @14\n      : @13 [@dyn 2] (gas: 1)\n   333: ra = 6, jump @28\n      : @14 [@dyn 3] (gas: 9)\n   338: sp = sp + 0xffffffffffffffc0\n   341: u64 [sp + 0x38] = ra\n   344: u64 [sp + 0x30] = s0\n   347: u64 [sp + 0x28] = s1\n   350: s0 = sp + 0x40\n   353: sp = sp & 0xffffffffffffffe0\n   356: a0 = 0x40\n   359: a1 = 0x20\n   362: ra = 8, jump @0\n      : @15 [@dyn 4] (gas: 39)\n   367: u8 [a0 + 31] = 0x80\n   372: u8 [a0 + 30] = 0\n   375: u8 [a0 + 29] = 0\n   378: u8 [a0 + 28] = 0\n   381: u8 [a0 + 27] = 0\n   384: u8 [a0 + 26] = 0\n   387: u8 [a0 + 25] = 0\n   390: u8 [a0 + 24] = 0\n   393: u8 [a0 + 23] = 0\n   396: u8 [a0 + 22] = 0\n   399: u8 [a0 + 21] = 0\n   402: u8 [a0 + 20] = 0\n   405: u8 [a0 + 19] = 0\n   408: u8 [a0 + 18] = 0\n   411: u8 [a0 + 17] = 0\n   414: u8 [a0 + 16] = 0\n   417: u8 [a0 + 15] = 0\n   420: u8 [a0 + 14] = 0\n   423: u8 [a0 + 13] = 0\n   426: u8 [a0 + 12] = 0\n   429: u8 [a0 + 11] = 0\n   432: u8 [a0 + 10] = 0\n   435: u8 [a0 + 9] = 0\n   438: u8 [a0 + 8] = 0\n   441: u8 [a0 + 7] = 0\n   444: u8 [a0 + 6] = 0\n   447: u8 [a0 + 5] = 0\n   450: u8 [a0 + 4] = 0\n   453: u8 [a0 + 3] = 0\n   456: u8 [a0 + 2] = 0\n   459: u8 [a0 + 1] = 0\n   462: u8 [a0 + 0] = 0\n   464: u64 [sp + 24] = 0\n   467: u64 [sp + 0] = 0\n   469: u64 [sp + 8] = 0\n   472: u64 [sp + 16] = 0\n   475: i32 a0 = sp + 0\n   477: ecalli 7 // 'value_transferred'\n   479: fallthrough\n      : @16 (gas: 8)\n   480: a0 = u64 [sp + 0x10]\n   483: a1 = u64 [sp + 0x18]\n   486: a2 = u64 [sp + 0x8]\n   489: a3 = u64 [sp]\n   491: a1 = a1 | a2\n   494: a0 = a0 | a3\n   497: a0 = a0 | a1\n   500: jump @20 if a0 != 0\n      : @17 (gas: 3)\n   504: a0 = 0x40\n   507: a1 = 0x20\n   510: ra = 10, jump @0\n      : @18 [@dyn 5] (gas: 100)\n   515: a1 = u8 [a0 + 0x11]\n   518: a2 = u8 [a0 + 0x10]\n   521: a3 = u8 [a0 + 0x12]\n   524: a4 = u8 [a0 + 0x13]\n   527: a1 = a1 << 0x8\n   530: a1 = a1 | a2\n   533: a3 = a3 << 0x10\n   536: a4 = a4 << 0x18\n   539: a3 = a3 | a4\n   542: a1 = a1 | a3\n   545: a2 = u8 [a0 + 0x15]\n   548: a3 = u8 [a0 + 0x14]\n   551: a4 = u8 [a0 + 0x16]\n   554: a5 = u8 [a0 + 0x17]\n   557: a2 = a2 << 0x8\n   560: a2 = a2 | a3\n   563: a4 = a4 << 0x10\n   566: a5 = a5 << 0x18\n   569: a4 = a4 | a5\n   572: a2 = a2 | a4\n   575: a2 = a2 << 0x20\n   578: t0 = a2 | a1\n   581: a2 = u8 [a0 + 0x1]\n   584: a3 = u8 [a0]\n   586: a4 = u8 [a0 + 0x2]\n   589: a5 = u8 [a0 + 0x3]\n   592: a2 = a2 << 0x8\n   595: a2 = a2 | a3\n   598: a4 = a4 << 0x10\n   601: a5 = a5 << 0x18\n   604: a4 = a4 | a5\n   607: a2 = a2 | a4\n   610: a3 = u8 [a0 + 0x5]\n   613: a4 = u8 [a0 + 0x4]\n   616: a5 = u8 [a0 + 0x6]\n   619: s1 = u8 [a0 + 0x7]\n   622: a3 = a3 << 0x8\n   625: a3 = a3 | a4\n   628: a5 = a5 << 0x10\n   631: s1 = s1 << 0x18\n   634: a5 = a5 | s1\n   637: a3 = a3 | a5\n   640: a3 = a3 << 0x20\n   643: a2 = a2 | a3\n   646: a3 = u8 [a0 + 0x19]\n   649: a4 = u8 [a0 + 0x18]\n   652: a5 = u8 [a0 + 0x1a]\n   655: s1 = u8 [a0 + 0x1b]\n   658: a3 = a3 << 0x8\n   661: a3 = a3 | a4\n   664: a5 = a5 << 0x10\n   667: s1 = s1 << 0x18\n   670: a5 = a5 | s1\n   673: a3 = a3 | a5\n   676: a4 = u8 [a0 + 0x1d]\n   679: a5 = u8 [a0 + 0x1c]\n   682: s1 = u8 [a0 + 0x1e]\n   685: a1 = u8 [a0 + 0x1f]\n   688: a4 = a4 << 0x8\n   691: a4 = a4 | a5\n   694: s1 = s1 << 0x10\n   697: a1 = a1 << 0x18\n   700: a1 = a1 | s1\n   703: a1 = a1 | a4\n   706: a1 = a1 << 0x20\n   709: a3 = a3 | a1\n   712: a1 = u8 [a0 + 0x9]\n   715: a4 = u8 [a0 + 0x8]\n   718: a5 = u8 [a0 + 0xa]\n   721: s1 = u8 [a0 + 0xb]\n   724: a1 = a1 << 0x8\n   727: a1 = a1 | a4\n   730: a5 = a5 << 0x10\n   733: s1 = s1 << 0x18\n   736: a5 = a5 | s1\n   739: a1 = a1 | a5\n   742: a4 = u8 [a0 + 0xd]\n   745: a5 = u8 [a0 + 0xc]\n   748: s1 = u8 [a0 + 0xe]\n   751: a0 = u8 [a0 + 0xf]\n   754: a4 = a4 << 0x8\n   757: a4 = a4 | a5\n   760: s1 = s1 << 0x10\n   763: a0 = a0 << 0x18\n   766: a0 = a0 | s1\n   769: a0 = a0 | a4\n   772: a0 = a0 << 0x20\n   775: a0 = a0 | a1\n   778: a0 = reverse a0\n   780: s1 = reverse a3\n   782: a1 = reverse a2\n   784: a2 = reverse t0\n   786: a1 = a1 | a2\n   789: a2 = s1 | a0\n   792: a2 = a2 | a1\n   795: a2 = a2 >> 0x20\n   798: a0 = a0 | a1\n   801: a0 = a0 << 0x20\n   804: a0 = a0 | a2\n   807: jump @22 if a0 == 0\n      : @19 (gas: 1)\n   810: trap\n      : @20 (gas: 3)\n   811: a0 = 0\n   813: a1 = 0\n   815: ra = 12, jump @0\n      : @21 [@dyn 6] (gas: 5)\n   820: i32 a1 = a0 + 0\n   822: a0 = 0x1\n   825: a2 = 0\n   827: ecalli 5 // 'seal_return'\n   829: fallthrough\n      : @22 (gas: 4)\n   830: i32 s1 = s1 + 0\n   832: a0 = s1\n   834: a1 = 0\n   836: ra = 14, jump @0\n      : @23 [@dyn 7] (gas: 5)\n   841: i32 a0 = a0 + 0\n   843: a1 = 0\n   845: a2 = 0\n   847: ecalli 1 // 'call_data_copy'\n   849: fallthrough\n      : @24 (gas: 2)\n   850: a1 = i32 [0x20008]\n   855: jump @26 if a1 == 0\n      : @25 (gas: 4)\n   858: a0 = 0x30010\n   863: i32 a0 = a0 + 0\n   865: ecalli 6 // 'set_immutable_data'\n   867: fallthrough\n      : @26 (gas: 3)\n   868: a0 = s1\n   870: a1 = 0\n   872: ra = 16, jump @0\n      : @27 [@dyn 8] (gas: 6)\n   877: i32 a1 = a0 + 0\n   879: a0 = 0\n   881: a2 = 0\n   883: ra = 0x12\n   886: ecalli 5 // 'seal_return'\n   888: fallthrough\n      : @28 [@dyn 9] (gas: 8)\n   889: sp = sp + 0xffffffffffffffc0\n   892: u64 [sp + 0x38] = ra\n   895: u64 [sp + 0x30] = s0\n   898: s0 = sp + 0x40\n   901: sp = sp & 0xffffffffffffffe0\n   904: a0 = 0x40\n   907: a1 = 0x20\n   910: ra = 20, jump @0\n      : @29 [@dyn 10] (gas: 34)\n   915: u8 [a0 + 31] = 0x80\n   920: u8 [a0 + 30] = 0\n   923: u8 [a0 + 29] = 0\n   926: u8 [a0 + 28] = 0\n   929: u8 [a0 + 27] = 0\n   932: u8 [a0 + 26] = 0\n   935: u8 [a0 + 25] = 0\n   938: u8 [a0 + 24] = 0\n   941: u8 [a0 + 23] = 0\n   944: u8 [a0 + 22] = 0\n   947: u8 [a0 + 21] = 0\n   950: u8 [a0 + 20] = 0\n   953: u8 [a0 + 19] = 0\n   956: u8 [a0 + 18] = 0\n   959: u8 [a0 + 17] = 0\n   962: u8 [a0 + 16] = 0\n   965: u8 [a0 + 15] = 0\n   968: u8 [a0 + 14] = 0\n   971: u8 [a0 + 13] = 0\n   974: u8 [a0 + 12] = 0\n   977: u8 [a0 + 11] = 0\n   980: u8 [a0 + 10] = 0\n   983: u8 [a0 + 9] = 0\n   986: u8 [a0 + 8] = 0\n   989: u8 [a0 + 7] = 0\n   992: u8 [a0 + 3] = 0\n   995: u8 [a0 + 2] = 0\n   998: u8 [a0 + 1] = 0\n  1001: u8 [a0 + 0] = 0\n  1003: a1 = i32 [0x20004]\n  1008: u8 [a0 + 6] = 0\n  1011: u8 [a0 + 5] = 0\n  1014: u8 [a0 + 4] = 0\n  1017: jump @33 if a1 <u 4\n      : @30 (gas: 4)\n  1021: i32 a0 = sp + 0\n  1023: a1 = 0\n  1025: ecalli 2 // 'call_data_load'\n  1027: fallthrough\n      : @31 (gas: 4)\n  1028: a0 = u32 [sp + 0x1c]\n  1031: a0 = a0 << 0x20\n  1034: a1 = 0x570e1a3600000000\n  1044: jump @33 if a0 != a1\n      : @32 (gas: 14)\n  1047: ra = 0x16\n  1050: sp = sp + 0xfffffffffffffec0\n  1054: u64 [sp + 0x138] = ra\n  1058: u64 [sp + 0x130] = s0\n  1062: u64 [sp + 0x128] = s1\n  1066: s0 = sp + 0x140\n  1070: sp = sp & 0xffffffffffffffe0\n  1073: u64 [sp + 280] = 0\n  1077: u64 [sp + 272] = 0\n  1081: u64 [sp + 264] = 0\n  1085: u64 [sp + 256] = 0\n  1089: i32 a0 = sp + 0x100\n  1093: ecalli 7 // 'value_transferred'\n  1095: jump @56\n      : @33 [@dyn 11] (gas: 7)\n  1098: ra = 0x18\n  1101: sp = sp + 0xfffffffffffffff8\n  1104: u64 [sp] = ra\n  1106: a0 = 0\n  1108: a1 = 0\n  1110: ra = 0x1c\n  1113: jump @0\n      : @34 [@dyn 12] (gas: 7)\n  1116: sp = sp + 0xfffffffffffffff0\n  1119: u64 [sp + 0x8] = ra\n  1122: u64 [sp] = s0\n  1124: s0 = a0\n  1126: a0 = 0x40\n  1129: a1 = 0x20\n  1132: ra = 26, jump @0\n      : @35 [@dyn 13] (gas: 100)\n  1137: a1 = u8 [a0 + 0x1]\n  1140: a2 = u8 [a0]\n  1142: a3 = u8 [a0 + 0x2]\n  1145: a4 = u8 [a0 + 0x3]\n  1148: a1 = a1 << 0x8\n  1151: a1 = a1 | a2\n  1154: a3 = a3 << 0x10\n  1157: a4 = a4 << 0x18\n  1160: a3 = a3 | a4\n  1163: a1 = a1 | a3\n  1166: a2 = u8 [a0 + 0x5]\n  1169: a3 = u8 [a0 + 0x4]\n  1172: a4 = u8 [a0 + 0x6]\n  1175: a5 = u8 [a0 + 0x7]\n  1178: a2 = a2 << 0x8\n  1181: a2 = a2 | a3\n  1184: a4 = a4 << 0x10\n  1187: a5 = a5 << 0x18\n  1190: a4 = a4 | a5\n  1193: a2 = a2 | a4\n  1196: a2 = a2 << 0x20\n  1199: t0 = a2 | a1\n  1202: a2 = u8 [a0 + 0x9]\n  1205: a3 = u8 [a0 + 0x8]\n  1208: a4 = u8 [a0 + 0xa]\n  1211: a5 = u8 [a0 + 0xb]\n  1214: a2 = a2 << 0x8\n  1217: a2 = a2 | a3\n  1220: a4 = a4 << 0x10\n  1223: a5 = a5 << 0x18\n  1226: a4 = a4 | a5\n  1229: a2 = a2 | a4\n  1232: a3 = u8 [a0 + 0xd]\n  1235: a4 = u8 [a0 + 0xc]\n  1238: a5 = u8 [a0 + 0xe]\n  1241: a1 = u8 [a0 + 0xf]\n  1244: a3 = a3 << 0x8\n  1247: a3 = a3 | a4\n  1250: a5 = a5 << 0x10\n  1253: a1 = a1 << 0x18\n  1256: a1 = a1 | a5\n  1259: a1 = a1 | a3\n  1262: a1 = a1 << 0x20\n  1265: t1 = a1 | a2\n  1268: a1 = u8 [a0 + 0x11]\n  1271: a3 = u8 [a0 + 0x10]\n  1274: a4 = u8 [a0 + 0x12]\n  1277: a5 = u8 [a0 + 0x13]\n  1280: a1 = a1 << 0x8\n  1283: a1 = a1 | a3\n  1286: a4 = a4 << 0x10\n  1289: a5 = a5 << 0x18\n  1292: a4 = a4 | a5\n  1295: a1 = a1 | a4\n  1298: a3 = u8 [a0 + 0x15]\n  1301: a4 = u8 [a0 + 0x14]\n  1304: a5 = u8 [a0 + 0x16]\n  1307: a2 = u8 [a0 + 0x17]\n  1310: a3 = a3 << 0x8\n  1313: a3 = a3 | a4\n  1316: a5 = a5 << 0x10\n  1319: a2 = a2 << 0x18\n  1322: a2 = a2 | a5\n  1325: a2 = a2 | a3\n  1328: a2 = a2 << 0x20\n  1331: a3 = a2 | a1\n  1334: a1 = u8 [a0 + 0x19]\n  1337: a2 = u8 [a0 + 0x18]\n  1340: a4 = u8 [a0 + 0x1a]\n  1343: a5 = u8 [a0 + 0x1b]\n  1346: a1 = a1 << 0x8\n  1349: a1 = a1 | a2\n  1352: a4 = a4 << 0x10\n  1355: a5 = a5 << 0x18\n  1358: a4 = a4 | a5\n  1361: a1 = a1 | a4\n  1364: a2 = u8 [a0 + 0x1d]\n  1367: a4 = u8 [a0 + 0x1c]\n  1370: a5 = u8 [a0 + 0x1e]\n  1373: a0 = u8 [a0 + 0x1f]\n  1376: a2 = a2 << 0x8\n  1379: a2 = a2 | a4\n  1382: a5 = a5 << 0x10\n  1385: a0 = a0 << 0x18\n  1388: a0 = a0 | a5\n  1391: a0 = a0 | a2\n  1394: a0 = a0 << 0x20\n  1397: a0 = a0 | a1\n  1400: a0 = reverse a0\n  1402: a1 = reverse a3\n  1404: a2 = reverse t1\n  1406: a3 = reverse t0\n  1408: u64 [s0 + 0x18] = a3\n  1411: u64 [s0 + 0x10] = a2\n  1414: u64 [s0 + 0x8] = a1\n  1417: u64 [s0] = a0\n  1419: ra = u64 [sp + 0x8]\n  1422: s0 = u64 [sp]\n  1424: sp = sp + 0x10\n  1427: ret\n      : @36 [@dyn 14] (gas: 6)\n  1429: i32 a1 = a0 + 0\n  1431: a0 = 0x1\n  1434: a2 = 0\n  1436: ra = 0x1e\n  1439: ecalli 5 // 'seal_return'\n  1441: fallthrough\n      : @37 [@dyn 15] (gas: 37)\n  1442: sp = sp + 0xffffffffffffff60\n  1446: u64 [sp + 0x98] = ra\n  1450: u64 [sp + 0x90] = s0\n  1454: u64 [sp + 0x88] = s1\n  1458: s0 = sp + 0xa0\n  1462: sp = sp & 0xffffffffffffffe0\n  1465: a4 = u64 [a1]\n  1467: s1 = u64 [a2 + 0x8]\n  1470: ra = u64 [a1 + 0x8]\n  1473: t1 = u64 [a2]\n  1475: a3 = a4 + 0x1f\n  1478: u64 [sp + 0x58] = a4\n  1481: t0 = a3 <u a4\n  1484: a5 = ra + t0\n  1487: u64 [sp + 0x40] = t1\n  1490: t1 = a3 <u t1\n  1493: a3 = a5 ^ s1\n  1496: u64 [sp + 0x48] = s1\n  1499: a4 = a5 <u s1\n  1502: a4 = t1 if a3 == 0\n  1505: t2 = u64 [a1 + 0x10]\n  1508: a3 = a5 <u ra\n  1511: a3 = t0 if t0 == 0\n  1514: t0 = u64 [a2 + 0x18]\n  1517: t1 = u64 [a1 + 0x18]\n  1520: s1 = u64 [a2 + 0x10]\n  1523: a3 = a3 + t2\n  1526: a1 = a3 <u t2\n  1529: a1 = a1 + t1\n  1532: a2 = a1 ^ t0\n  1535: a1 = a1 <s t0\n  1538: a5 = a3 <u s1\n  1541: a1 = a5 if a2 == 0\n  1544: a3 = a3 ^ s1\n  1547: a2 = a2 | a3\n  1550: a4 = a1 if a2 != 0\n  1553: jump @44 if a4 == 0\n      : @38 (gas: 14)\n  1557: u64 [sp + 0x28] = t0\n  1560: u64 [sp + 0x30] = s1\n  1563: u64 [sp + 0x38] = a0\n  1566: a0 = u64 [sp + 0x58]\n  1569: a0 = a0 | t2\n  1572: u64 [sp + 0x18] = t1\n  1575: a1 = ra | t1\n  1578: a0 = a0 | a1\n  1581: a0 = a0 >> 0x20\n  1584: u64 [sp + 0x20] = t2\n  1587: a1 = a1 | t2\n  1590: a1 = a1 << 0x20\n  1593: a0 = a0 | a1\n  1596: jump @43 if a0 != 0\n      : @39 (gas: 5)\n  1600: s1 = ra\n  1602: a1 = i32 [sp + 0x58]\n  1605: i32 a0 = sp + 0x60\n  1608: ecalli 2 // 'call_data_load'\n  1610: fallthrough\n      : @40 (gas: 8)\n  1611: a0 = u64 [sp + 0x78]\n  1614: a1 = u64 [sp + 0x70]\n  1617: t1 = u64 [sp + 0x68]\n  1620: u64 [sp + 0x50] = a0\n  1623: a0 = a0 | a1\n  1626: a3 = t1 <u 0x1\n  1629: a3 = 0 if a0 != 0\n  1631: jump @44 if a3 == 0\n      : @41 (gas: 46)\n  1635: a2 = u64 [sp + 0x60]\n  1638: a0 = u64 [sp + 0x58]\n  1641: a4 = a0 + 0x20\n  1644: a0 = a4 <u a0\n  1647: ra = s1 + a0\n  1650: u64 [sp + 0x10] = a4\n  1653: a4 = a4 + a2\n  1656: u64 [sp + 0x58] = a2\n  1659: t0 = a4 <u a2\n  1662: a5 = t1 + ra\n  1665: a5 = a5 + t0\n  1668: a2 = a5 ^ t1\n  1671: a3 = a5 <u t1\n  1674: a3 = t0 if a2 == 0\n  1677: a2 = ra <u s1\n  1680: a2 = a0 if a0 == 0\n  1683: a0 = u64 [sp + 0x20]\n  1686: t2 = a0 + a2\n  1689: s1 = t2 <u a0\n  1692: a0 = u64 [sp + 0x18]\n  1695: a0 = a0 + s1\n  1698: s1 = u64 [sp + 0x48]\n  1701: a2 = a5 ^ s1\n  1704: a5 = s1 <u a5\n  1707: s1 = u64 [sp + 0x40]\n  1710: a4 = s1 <u a4\n  1713: a4 = a5 if a2 != 0\n  1716: a2 = a1 + t2\n  1719: a5 = a2 <u a1\n  1722: s1 = u64 [sp + 0x50]\n  1725: u64 [sp + 0x48] = a0\n  1728: s1 = s1 + a0\n  1731: a5 = a5 + s1\n  1734: a3 = a3 + a2\n  1737: a2 = a3 <u a2\n  1740: a2 = a2 + a5\n  1743: s1 = u64 [sp + 0x28]\n  1746: a5 = a2 ^ s1\n  1749: t0 = s1 <u a2\n  1752: a2 = u64 [sp + 0x30]\n  1755: s1 = a2 <u a3\n  1758: s1 = t0 if a5 != 0\n  1761: a2 = a2 ^ a3\n  1764: a2 = a2 | a5\n  1767: a4 = s1 if a2 != 0\n  1770: jump @44 if a4 != 0\n      : @42 (gas: 19)\n  1773: a2 = u64 [sp + 0x38]\n  1776: a0 = u64 [sp + 0x58]\n  1779: u64 [a2 + 0x20] = a0\n  1782: a0 = u64 [sp + 0x10]\n  1785: u64 [a2] = a0\n  1787: u64 [a2 + 0x28] = t1\n  1790: u64 [a2 + 0x8] = ra\n  1793: u64 [a2 + 0x30] = a1\n  1796: u64 [a2 + 0x10] = t2\n  1799: a0 = u64 [sp + 0x50]\n  1802: u64 [a2 + 0x38] = a0\n  1805: a0 = u64 [sp + 0x48]\n  1808: u64 [a2 + 0x18] = a0\n  1811: sp = s0 + 0xffffffffffffff60\n  1815: ra = u64 [sp + 0x98]\n  1819: s0 = u64 [sp + 0x90]\n  1823: s1 = u64 [sp + 0x88]\n  1827: sp = sp + 0xa0\n  1831: ret\n      : @43 (gas: 1)\n  1833: trap\n      : @44 (gas: 3)\n  1834: a0 = 0\n  1836: a1 = 0\n  1838: ra = 32, jump @0\n      : @45 [@dyn 16] (gas: 6)\n  1843: i32 a1 = a0 + 0\n  1845: a0 = 0x1\n  1848: a2 = 0\n  1850: ra = 0x22\n  1853: ecalli 5 // 'seal_return'\n  1855: fallthrough\n      : @46 [@dyn 17] (gas: 42)\n  1856: sp = sp + 0xfffffffffffffee0\n  1860: u64 [sp + 0x118] = ra\n  1864: u64 [sp + 0x110] = s0\n  1868: u64 [sp + 0x108] = s1\n  1872: s0 = sp + 0x120\n  1876: sp = sp & 0xffffffffffffffe0\n  1879: t2 = a1\n  1881: t0 = u64 [a2 + 0x8]\n  1884: ra = u64 [a1 + 0x8]\n  1887: a1 = u64 [a2]\n  1889: s1 = u64 [t2]\n  1891: t1 = u64 [a2 + 0x10]\n  1894: a4 = t0 ^ ra\n  1897: a3 = t0 <u ra\n  1900: a5 = a1 <u s1\n  1903: a3 = a5 if a4 == 0\n  1906: a4 = t0 - ra\n  1909: a4 = a4 - a5\n  1912: u64 [sp + 0x58] = s1\n  1915: u64 [sp + 0x40] = a1\n  1918: a5 = a1 - s1\n  1921: a5 = a5 <u 0x20\n  1924: a5 = a5 ^ 0x1\n  1927: a1 = u64 [t2 + 0x10]\n  1930: s1 = a4 >u 0\n  1932: a5 = s1 if a4 != 0\n  1935: a4 = u64 [a2 + 0x18]\n  1938: s1 = u64 [t2 + 0x18]\n  1941: a2 = t1 - a1\n  1944: t2 = a2 - a3\n  1947: a2 = a2 <u a3\n  1950: a3 = t1 <u a1\n  1953: u64 [sp + 0x30] = a4\n  1956: a4 = a4 - s1\n  1959: a4 = a4 - a3\n  1962: a4 = a4 - a2\n  1965: a2 = a4 >s 0\n  1967: a3 = t2 >u 0\n  1969: a3 = a2 if a4 != 0\n  1972: a2 = t2 | a4\n  1975: a5 = a3 if a2 != 0\n  1978: jump @53 if a5 == 0\n      : @47 (gas: 15)\n  1982: u64 [sp + 0x18] = a0\n  1985: u64 [sp + 0x48] = t1\n  1988: u64 [sp + 0x50] = t0\n  1991: a0 = u64 [sp + 0x58]\n  1994: a0 = a0 | a1\n  1997: u64 [sp + 0x38] = ra\n  2000: u64 [sp + 0x20] = s1\n  2003: a2 = ra | s1\n  2006: a0 = a0 | a2\n  2009: a0 = a0 >> 0x20\n  2012: u64 [sp + 0x28] = a1\n  2015: a1 = a1 | a2\n  2018: a1 = a1 << 0x20\n  2021: a0 = a0 | a1\n  2024: jump @52 if a0 != 0\n      : @48 (gas: 4)\n  2028: a1 = i32 [sp + 0x58]\n  2031: i32 a0 = sp + 0xe0\n  2035: ecalli 2 // 'call_data_load'\n  2037: fallthrough\n      : @49 (gas: 7)\n  2038: t0 = u64 [sp + 0xf8]\n  2042: a1 = u64 [sp + 0xf0]\n  2046: a2 = u64 [sp + 0xe8]\n  2050: a3 = a1 | t0\n  2053: a4 = a2 <u 0x1\n  2056: a4 = 0 if a3 != 0\n  2058: jump @53 if a4 == 0\n      : @50 (gas: 35)\n  2062: a3 = u64 [sp + 0xe0]\n  2066: a4 = u64 [sp + 0x58]\n  2069: a4 = a4 + a3\n  2072: a3 = a4 <u a3\n  2075: a5 = u64 [sp + 0x38]\n  2078: a5 = a5 + a2\n  2081: a5 = a5 + a3\n  2084: a0 = a5 ^ a2\n  2087: a2 = a5 <u a2\n  2090: a2 = a3 if a0 == 0\n  2093: a0 = u64 [sp + 0x28]\n  2096: a0 = a0 + a1\n  2099: a2 = a2 + a0\n  2102: a3 = a2 <u a0\n  2105: a0 = a0 <u a1\n  2108: a1 = u64 [sp + 0x20]\n  2111: t0 = t0 + a1\n  2114: a0 = a0 + t0\n  2117: a3 = a3 + a0\n  2120: a0 = u64 [sp + 0x40]\n  2123: u64 [sp + 0x60] = a0\n  2126: a0 = u64 [sp + 0x50]\n  2129: u64 [sp + 0x68] = a0\n  2132: u64 [sp + 0x80] = a4\n  2136: a0 = u64 [sp + 0x48]\n  2139: u64 [sp + 0x70] = a0\n  2142: a0 = u64 [sp + 0x30]\n  2145: u64 [sp + 0x78] = a0\n  2148: u64 [sp + 0x88] = a5\n  2152: u64 [sp + 0x90] = a2\n  2156: a0 = sp + 0xa0\n  2160: a1 = sp + 0x80\n  2164: a2 = sp + 0x60\n  2167: u64 [sp + 0x98] = a3\n  2171: ra = 36, jump @37\n      : @51 [@dyn 18] (gas: 23)\n  2176: t0 = u64 [sp + 0xa8]\n  2180: t1 = u64 [sp + 0xa0]\n  2184: a2 = u64 [sp + 0xb8]\n  2188: a3 = u64 [sp + 0xb0]\n  2192: a4 = u64 [sp + 0xd0]\n  2196: a5 = u64 [sp + 0xd8]\n  2200: a0 = u64 [sp + 0xc0]\n  2204: a1 = u64 [sp + 0xc8]\n  2208: s1 = u64 [sp + 0x18]\n  2211: u64 [s1 + 0x30] = a4\n  2214: u64 [s1 + 0x38] = a5\n  2217: u64 [s1 + 0x20] = a0\n  2220: u64 [s1 + 0x28] = a1\n  2223: u64 [s1 + 0x10] = a3\n  2226: u64 [s1 + 0x18] = a2\n  2229: u64 [s1] = t1\n  2231: u64 [s1 + 0x8] = t0\n  2234: sp = s0 + 0xfffffffffffffee0\n  2238: ra = u64 [sp + 0x118]\n  2242: s0 = u64 [sp + 0x110]\n  2246: s1 = u64 [sp + 0x108]\n  2250: sp = sp + 0x120\n  2254: ret\n      : @52 (gas: 1)\n  2256: trap\n      : @53 (gas: 3)\n  2257: a0 = 0\n  2259: a1 = 0\n  2261: ra = 38, jump @0\n      : @54 [@dyn 19] (gas: 6)\n  2266: i32 a1 = a0 + 0\n  2268: a0 = 0x1\n  2271: a2 = 0\n  2273: ra = 0x28\n  2276: ecalli 5 // 'seal_return'\n  2278: fallthrough\n      : @55 [@dyn 20] (gas: 8)\n  2279: a2 = u32 [a1 + 0x10]\n  2282: a3 = u64 [a1 + 0x8]\n  2285: a1 = u64 [a1]\n  2287: u64 [a0 + 24] = 0\n  2290: u64 [a0 + 0x10] = a2\n  2293: u64 [a0 + 0x8] = a3\n  2296: u64 [a0] = a1\n  2298: ret\n      : @56 (gas: 8)\n  2300: a0 = u64 [sp + 0x110]\n  2304: a1 = u64 [sp + 0x118]\n  2308: a2 = u64 [sp + 0x108]\n  2312: a3 = u64 [sp + 0x100]\n  2316: a1 = a1 | a2\n  2319: a0 = a0 | a3\n  2322: a0 = a0 | a1\n  2325: jump @62 if a0 != 0\n      : @57 (gas: 13)\n  2329: a0 = u32 [0x20004]\n  2334: u64 [sp + 152] = 0\n  2338: u64 [sp + 144] = 0\n  2342: u64 [sp + 136] = 0\n  2346: u64 [sp + 0x80] = a0\n  2350: u64 [sp + 184] = 0\n  2354: u64 [sp + 176] = 0\n  2358: u64 [sp + 160] = 0x4\n  2363: a0 = sp + 0xc0\n  2367: a1 = sp + 0xa0\n  2371: a2 = sp + 0x80\n  2375: u64 [sp + 168] = 0\n  2379: ra = 42, jump @46\n      : @58 [@dyn 21] (gas: 20)\n  2384: t0 = u64 [sp + 0xc0]\n  2388: a0 = u64 [sp + 0xc8]\n  2392: a1 = u64 [sp + 0xd0]\n  2396: a2 = u64 [sp + 0xd8]\n  2400: a4 = u64 [sp + 0xe0]\n  2404: a5 = u64 [sp + 0xe8]\n  2408: s1 = u64 [sp + 0xf0]\n  2412: a3 = u64 [sp + 0xf8]\n  2416: u64 [sp + 0x38] = a3\n  2419: u64 [sp + 0x30] = s1\n  2422: u64 [sp + 0x28] = a5\n  2425: u64 [sp + 0x20] = a4\n  2428: u64 [sp + 0x58] = a2\n  2431: u64 [sp + 0x50] = a1\n  2434: u64 [sp + 0x48] = a0\n  2437: a0 = sp + 0x60\n  2440: a1 = sp + 0x40\n  2443: a2 = sp + 0x20\n  2446: u64 [sp + 0x40] = t0\n  2449: ra = 44, jump @113\n      : @59 [@dyn 22] (gas: 9)\n  2454: a0 = u64 [sp + 0x70]\n  2457: u64 [sp + 0x8] = a0\n  2460: a0 = u64 [sp + 0x68]\n  2463: u64 [sp + 0x10] = a0\n  2466: a0 = u64 [sp + 0x60]\n  2469: u64 [sp + 0x18] = a0\n  2472: a0 = 0x40\n  2475: a1 = 0x20\n  2478: ra = 46, jump @0\n      : @60 [@dyn 23] (gas: 100)\n  2483: a1 = u8 [a0 + 0x11]\n  2486: a2 = u8 [a0 + 0x10]\n  2489: a3 = u8 [a0 + 0x12]\n  2492: a4 = u8 [a0 + 0x13]\n  2495: a1 = a1 << 0x8\n  2498: a1 = a1 | a2\n  2501: a3 = a3 << 0x10\n  2504: a4 = a4 << 0x18\n  2507: a3 = a3 | a4\n  2510: a1 = a1 | a3\n  2513: a2 = u8 [a0 + 0x15]\n  2516: a3 = u8 [a0 + 0x14]\n  2519: a4 = u8 [a0 + 0x16]\n  2522: a5 = u8 [a0 + 0x17]\n  2525: a2 = a2 << 0x8\n  2528: a2 = a2 | a3\n  2531: a4 = a4 << 0x10\n  2534: a5 = a5 << 0x18\n  2537: a4 = a4 | a5\n  2540: a2 = a2 | a4\n  2543: a2 = a2 << 0x20\n  2546: t0 = a2 | a1\n  2549: a2 = u8 [a0 + 0x1]\n  2552: a3 = u8 [a0]\n  2554: a4 = u8 [a0 + 0x2]\n  2557: a5 = u8 [a0 + 0x3]\n  2560: a2 = a2 << 0x8\n  2563: a2 = a2 | a3\n  2566: a4 = a4 << 0x10\n  2569: a5 = a5 << 0x18\n  2572: a4 = a4 | a5\n  2575: a2 = a2 | a4\n  2578: a3 = u8 [a0 + 0x5]\n  2581: a4 = u8 [a0 + 0x4]\n  2584: a5 = u8 [a0 + 0x6]\n  2587: s1 = u8 [a0 + 0x7]\n  2590: a3 = a3 << 0x8\n  2593: a3 = a3 | a4\n  2596: a5 = a5 << 0x10\n  2599: s1 = s1 << 0x18\n  2602: a5 = a5 | s1\n  2605: a3 = a3 | a5\n  2608: a3 = a3 << 0x20\n  2611: a2 = a2 | a3\n  2614: a3 = u8 [a0 + 0x19]\n  2617: a4 = u8 [a0 + 0x18]\n  2620: a5 = u8 [a0 + 0x1a]\n  2623: s1 = u8 [a0 + 0x1b]\n  2626: a3 = a3 << 0x8\n  2629: a3 = a3 | a4\n  2632: a5 = a5 << 0x10\n  2635: s1 = s1 << 0x18\n  2638: a5 = a5 | s1\n  2641: a3 = a3 | a5\n  2644: a4 = u8 [a0 + 0x1d]\n  2647: a5 = u8 [a0 + 0x1c]\n  2650: s1 = u8 [a0 + 0x1e]\n  2653: a1 = u8 [a0 + 0x1f]\n  2656: a4 = a4 << 0x8\n  2659: a4 = a4 | a5\n  2662: s1 = s1 << 0x10\n  2665: a1 = a1 << 0x18\n  2668: a1 = a1 | s1\n  2671: a1 = a1 | a4\n  2674: a1 = a1 << 0x20\n  2677: a3 = a3 | a1\n  2680: a1 = u8 [a0 + 0x9]\n  2683: a4 = u8 [a0 + 0x8]\n  2686: a5 = u8 [a0 + 0xa]\n  2689: s1 = u8 [a0 + 0xb]\n  2692: a1 = a1 << 0x8\n  2695: a1 = a1 | a4\n  2698: a5 = a5 << 0x10\n  2701: s1 = s1 << 0x18\n  2704: a5 = a5 | s1\n  2707: a1 = a1 | a5\n  2710: a4 = u8 [a0 + 0xd]\n  2713: a5 = u8 [a0 + 0xc]\n  2716: s1 = u8 [a0 + 0xe]\n  2719: a0 = u8 [a0 + 0xf]\n  2722: a4 = a4 << 0x8\n  2725: a4 = a4 | a5\n  2728: s1 = s1 << 0x10\n  2731: a0 = a0 << 0x18\n  2734: a0 = a0 | s1\n  2737: a0 = a0 | a4\n  2740: a0 = a0 << 0x20\n  2743: a0 = a0 | a1\n  2746: a1 = reverse a0\n  2748: a0 = reverse a3\n  2750: a2 = reverse a2\n  2752: a3 = reverse t0\n  2754: a2 = a2 | a3\n  2757: a3 = a0 | a1\n  2760: a3 = a3 | a2\n  2763: a3 = a3 >> 0x20\n  2766: a1 = a1 | a2\n  2769: a1 = a1 << 0x20\n  2772: a1 = a1 | a3\n  2775: jump @64 if a1 == 0\n      : @61 (gas: 1)\n  2778: trap\n      : @62 (gas: 3)\n  2779: a0 = 0\n  2781: a1 = 0\n  2783: ra = 48, jump @0\n      : @63 [@dyn 24] (gas: 5)\n  2788: i32 a1 = a0 + 0\n  2790: a0 = 0x1\n  2793: a2 = 0\n  2795: ecalli 5 // 'seal_return'\n  2797: fallthrough\n      : @64 (gas: 7)\n  2798: a1 = u64 [sp + 0x8]\n  2801: a1 = a1 << 0x20\n  2804: s1 = a1 >> 0x20\n  2807: i32 a0 = a0 + 0\n  2809: u64 [sp + 0x8] = a0\n  2812: a1 = 0x20\n  2815: ra = 50, jump @0\n      : @65 [@dyn 25] (gas: 58)\n  2820: a1 = reverse s1\n  2822: a2 = u64 [sp + 0x10]\n  2825: a2 = reverse a2\n  2827: a3 = u64 [sp + 0x18]\n  2830: a3 = reverse a3\n  2832: a4 = a3 >> 0x38\n  2835: u8 [a0 + 0x1f] = a4\n  2838: a4 = a3 >> 0x30\n  2841: u8 [a0 + 0x1e] = a4\n  2844: a4 = a3 >> 0x28\n  2847: u8 [a0 + 0x1d] = a4\n  2850: a4 = a3 >> 0x20\n  2853: u8 [a0 + 0x1c] = a4\n  2856: a4 = a3 >> 0x18\n  2859: u8 [a0 + 0x1b] = a4\n  2862: a4 = a3 >> 0x10\n  2865: u8 [a0 + 0x1a] = a4\n  2868: a4 = a3 >> 0x8\n  2871: u8 [a0 + 0x19] = a4\n  2874: u8 [a0 + 0x18] = a3\n  2877: u8 [a0 + 0x10] = a2\n  2880: u8 [a0 + 11] = 0\n  2883: u8 [a0 + 10] = 0\n  2886: u8 [a0 + 9] = 0\n  2889: u8 [a0 + 7] = 0\n  2892: u8 [a0 + 6] = 0\n  2895: u8 [a0 + 5] = 0\n  2898: u8 [a0 + 4] = 0\n  2901: u8 [a0 + 3] = 0\n  2904: u8 [a0 + 2] = 0\n  2907: u8 [a0 + 1] = 0\n  2910: u8 [a0 + 0] = 0\n  2912: a3 = a2 >> 0x38\n  2915: u8 [a0 + 0x17] = a3\n  2918: a3 = a2 >> 0x30\n  2921: u8 [a0 + 0x16] = a3\n  2924: a3 = a2 >> 0x28\n  2927: u8 [a0 + 0x15] = a3\n  2930: a3 = a2 >> 0x20\n  2933: u8 [a0 + 0x14] = a3\n  2936: a3 = a2 >> 0x18\n  2939: u8 [a0 + 0x13] = a3\n  2942: a3 = a2 >> 0x10\n  2945: u8 [a0 + 0x12] = a3\n  2948: a2 = a2 >> 0x8\n  2951: u8 [a0 + 0x11] = a2\n  2954: u8 [a0 + 0x8] = a1\n  2957: a2 = a1 >> 0x38\n  2960: u8 [a0 + 0xf] = a2\n  2963: a2 = a1 >> 0x30\n  2966: u8 [a0 + 0xe] = a2\n  2969: a2 = a1 >> 0x28\n  2972: u8 [a0 + 0xd] = a2\n  2975: a1 = a1 >> 0x20\n  2978: u8 [a0 + 0xc] = a1\n  2981: a1 = 0x20\n  2984: a0 = u64 [sp + 0x8]\n  2987: ra = 52, jump @0\n      : @66 [@dyn 26] (gas: 6)\n  2992: i32 a1 = a0 + 0\n  2994: a2 = 0x20\n  2997: a0 = 0\n  2999: ra = 0x36\n  3002: ecalli 5 // 'seal_return'\n  3004: fallthrough\n      : @67 [@dyn 27] (gas: 5)\n  3005: u64 [a0 + 24] = 0\n  3008: u64 [a0 + 16] = 0\n  3011: u64 [a0 + 8] = 0\n  3014: u64 [a0 + 0] = 0\n  3016: ret\n      : @68 [@dyn 28] (gas: 130)\n  3018: a1 = u8 [a0 + 0x19]\n  3021: a2 = u8 [a0 + 0x18]\n  3024: a3 = u8 [a0 + 0x1a]\n  3027: a4 = u8 [a0 + 0x1b]\n  3030: a1 = a1 << 0x8\n  3033: a1 = a1 | a2\n  3036: a3 = a3 << 0x10\n  3039: a4 = a4 << 0x18\n  3042: a3 = a3 | a4\n  3045: a1 = a1 | a3\n  3048: a2 = u8 [a0 + 0x1d]\n  3051: a3 = u8 [a0 + 0x1c]\n  3054: a4 = u8 [a0 + 0x1e]\n  3057: a5 = u8 [a0 + 0x1f]\n  3060: a2 = a2 << 0x8\n  3063: a2 = a2 | a3\n  3066: a4 = a4 << 0x10\n  3069: a5 = a5 << 0x18\n  3072: a4 = a4 | a5\n  3075: a2 = a2 | a4\n  3078: a2 = a2 << 0x20\n  3081: t0 = a2 | a1\n  3084: a2 = u8 [a0 + 0x11]\n  3087: a3 = u8 [a0 + 0x10]\n  3090: a4 = u8 [a0 + 0x12]\n  3093: a5 = u8 [a0 + 0x13]\n  3096: a2 = a2 << 0x8\n  3099: a2 = a2 | a3\n  3102: a4 = a4 << 0x10\n  3105: a5 = a5 << 0x18\n  3108: a4 = a4 | a5\n  3111: a2 = a2 | a4\n  3114: a3 = u8 [a0 + 0x15]\n  3117: a4 = u8 [a0 + 0x14]\n  3120: a5 = u8 [a0 + 0x16]\n  3123: s1 = u8 [a0 + 0x17]\n  3126: a3 = a3 << 0x8\n  3129: a3 = a3 | a4\n  3132: a5 = a5 << 0x10\n  3135: s1 = s1 << 0x18\n  3138: a5 = a5 | s1\n  3141: a3 = a3 | a5\n  3144: a3 = a3 << 0x20\n  3147: a2 = a2 | a3\n  3150: a3 = u8 [a0 + 0x9]\n  3153: a4 = u8 [a0 + 0x8]\n  3156: a5 = u8 [a0 + 0xa]\n  3159: s1 = u8 [a0 + 0xb]\n  3162: a3 = a3 << 0x8\n  3165: a3 = a3 | a4\n  3168: a5 = a5 << 0x10\n  3171: s1 = s1 << 0x18\n  3174: a5 = a5 | s1\n  3177: a3 = a3 | a5\n  3180: a4 = u8 [a0 + 0xd]\n  3183: a5 = u8 [a0 + 0xc]\n  3186: s1 = u8 [a0 + 0xe]\n  3189: a1 = u8 [a0 + 0xf]\n  3192: a4 = a4 << 0x8\n  3195: a4 = a4 | a5\n  3198: s1 = s1 << 0x10\n  3201: a1 = a1 << 0x18\n  3204: a1 = a1 | s1\n  3207: a1 = a1 | a4\n  3210: a1 = a1 << 0x20\n  3213: a3 = a3 | a1\n  3216: a1 = u8 [a0 + 0x1]\n  3219: a4 = u8 [a0]\n  3221: a5 = u8 [a0 + 0x2]\n  3224: s1 = u8 [a0 + 0x3]\n  3227: a1 = a1 << 0x8\n  3230: a1 = a1 | a4\n  3233: a5 = a5 << 0x10\n  3236: s1 = s1 << 0x18\n  3239: a5 = a5 | s1\n  3242: a1 = a1 | a5\n  3245: a4 = u8 [a0 + 0x5]\n  3248: a5 = u8 [a0 + 0x4]\n  3251: s1 = u8 [a0 + 0x6]\n  3254: a0 = u8 [a0 + 0x7]\n  3257: a4 = a4 << 0x8\n  3260: a4 = a4 | a5\n  3263: s1 = s1 << 0x10\n  3266: a0 = a0 << 0x18\n  3269: a0 = a0 | s1\n  3272: a0 = a0 | a4\n  3275: a0 = a0 << 0x20\n  3278: a0 = a0 | a1\n  3281: t1 = reverse a0\n  3283: t2 = reverse a3\n  3285: s1 = reverse a2\n  3287: a5 = reverse t0\n  3289: a1 = u64 [sp + 0x18]\n  3292: a0 = a1 + 0x1f\n  3295: a1 = a0 <u a1\n  3298: a3 = u64 [sp + 0x20]\n  3301: a2 = a3 + a1\n  3304: a3 = a2 <u a3\n  3307: a3 = a1 if a1 == 0\n  3310: a1 = u64 [sp + 0x28]\n  3313: a3 = a3 + a1\n  3316: a1 = a3 <u a1\n  3319: a4 = u64 [sp + 0x30]\n  3322: a1 = a1 + a4\n  3325: a0 = a0 & 0xffffffffffffffe0\n  3328: a0 = a0 + a5\n  3331: u64 [sp + 0x28] = a5\n  3334: u64 [sp + 0x10] = a0\n  3337: a4 = a0 <u a5\n  3340: a2 = a2 + s1\n  3343: a5 = a2 + a4\n  3346: a2 = a5 ^ s1\n  3349: u64 [sp + 0x30] = s1\n  3352: a0 = a5 <u s1\n  3355: a0 = a4 if a2 == 0\n  3358: a3 = a3 + t2\n  3361: a4 = a3 + a0\n  3364: s1 = a4 <u a3\n  3367: a2 = a3 <u t2\n  3370: a1 = a1 + t1\n  3373: a1 = a1 + a2\n  3376: s1 = s1 + a1\n  3379: a1 = a4 >u 0\n  3381: a2 = s1 >u 0\n  3383: a2 = a1 if s1 == 0\n  3386: a1 = a4 | s1\n  3389: u64 [sp + 0x8] = a5\n  3392: a3 = a5 >u 0\n  3394: a3 = a2 if a1 != 0\n  3397: jump @72 if a3 != 0\n      : @69 (gas: 8)\n  3401: a1 = a4 <u t2\n  3404: a2 = s1 ^ t1\n  3407: a3 = s1 <u t1\n  3410: a3 = a1 if a2 == 0\n  3413: a1 = a4 ^ t2\n  3416: a1 = a1 | a2\n  3419: a0 = a3 if a1 != 0\n  3422: jump @72 if a0 != 0\n      : @70 (gas: 6)\n  3426: a0 = 0x40\n  3429: a1 = 0x20\n  3432: u64 [sp + 0x20] = t2\n  3435: u64 [sp + 0x18] = t1\n  3438: u64 [sp] = a4\n  3440: ra = 58, jump @0\n      : @71 [@dyn 29] (gas: 82)\n  3445: a1 = reverse s1\n  3447: a2 = u64 [sp]\n  3449: a2 = reverse a2\n  3451: a3 = u64 [sp + 0x8]\n  3454: a3 = reverse a3\n  3456: a4 = u64 [sp + 0x10]\n  3459: a4 = reverse a4\n  3461: u8 [a0 + 0x18] = a4\n  3464: a5 = a4 >> 0x38\n  3467: u8 [a0 + 0x1f] = a5\n  3470: a5 = a4 >> 0x30\n  3473: u8 [a0 + 0x1e] = a5\n  3476: a5 = a4 >> 0x28\n  3479: u8 [a0 + 0x1d] = a5\n  3482: a5 = a4 >> 0x20\n  3485: u8 [a0 + 0x1c] = a5\n  3488: a5 = a4 >> 0x18\n  3491: u8 [a0 + 0x1b] = a5\n  3494: a5 = a4 >> 0x10\n  3497: u8 [a0 + 0x1a] = a5\n  3500: a4 = a4 >> 0x8\n  3503: u8 [a0 + 0x19] = a4\n  3506: u8 [a0 + 0x10] = a3\n  3509: a4 = a3 >> 0x38\n  3512: u8 [a0 + 0x17] = a4\n  3515: a4 = a3 >> 0x30\n  3518: u8 [a0 + 0x16] = a4\n  3521: a4 = a3 >> 0x28\n  3524: u8 [a0 + 0x15] = a4\n  3527: a4 = a3 >> 0x20\n  3530: u8 [a0 + 0x14] = a4\n  3533: a4 = a3 >> 0x18\n  3536: u8 [a0 + 0x13] = a4\n  3539: a4 = a3 >> 0x10\n  3542: u8 [a0 + 0x12] = a4\n  3545: a3 = a3 >> 0x8\n  3548: u8 [a0 + 0x11] = a3\n  3551: u8 [a0 + 0x8] = a2\n  3554: a3 = a2 >> 0x38\n  3557: u8 [a0 + 0xf] = a3\n  3560: a3 = a2 >> 0x30\n  3563: u8 [a0 + 0xe] = a3\n  3566: a3 = a2 >> 0x28\n  3569: u8 [a0 + 0xd] = a3\n  3572: a3 = a2 >> 0x20\n  3575: u8 [a0 + 0xc] = a3\n  3578: a3 = a2 >> 0x18\n  3581: u8 [a0 + 0xb] = a3\n  3584: a3 = a2 >> 0x10\n  3587: u8 [a0 + 0xa] = a3\n  3590: a2 = a2 >> 0x8\n  3593: u8 [a0 + 0x9] = a2\n  3596: u8 [a0] = a1\n  3598: a2 = a1 >> 0x38\n  3601: u8 [a0 + 0x7] = a2\n  3604: a2 = a1 >> 0x30\n  3607: u8 [a0 + 0x6] = a2\n  3610: a2 = a1 >> 0x28\n  3613: u8 [a0 + 0x5] = a2\n  3616: a2 = a1 >> 0x20\n  3619: u8 [a0 + 0x4] = a2\n  3622: a2 = a1 >> 0x18\n  3625: u8 [a0 + 0x3] = a2\n  3628: a2 = a1 >> 0x10\n  3631: u8 [a0 + 0x2] = a2\n  3634: a1 = a1 >> 0x8\n  3637: u8 [a0 + 0x1] = a1\n  3640: a0 = u64 [sp + 0x38]\n  3643: a1 = u64 [sp + 0x28]\n  3646: u64 [a0] = a1\n  3648: a1 = u64 [sp + 0x18]\n  3651: u64 [a0 + 0x18] = a1\n  3654: a1 = u64 [sp + 0x30]\n  3657: u64 [a0 + 0x8] = a1\n  3660: a1 = u64 [sp + 0x20]\n  3663: u64 [a0 + 0x10] = a1\n  3666: sp = s0 + 0xffffffffffffff60\n  3670: ra = u64 [sp + 0x98]\n  3674: s0 = u64 [sp + 0x90]\n  3678: s1 = u64 [sp + 0x88]\n  3682: sp = sp + 0xa0\n  3686: ret\n      : @72 (gas: 8)\n  3688: u64 [sp + 112] = 0\n  3691: u64 [sp + 104] = 0\n  3694: u64 [sp + 96] = 0\n  3697: a0 = 0x4e487b7100000000\n  3707: a1 = sp + 0x60\n  3710: u64 [sp + 0x78] = a0\n  3713: a0 = 0\n  3715: ra = 60, jump @8\n      : @73 [@dyn 30] (gas: 7)\n  3720: u64 [sp + 88] = 0\n  3723: u64 [sp + 80] = 0\n  3726: u64 [sp + 64] = 0x41\n  3730: a0 = 0x4\n  3733: a1 = sp + 0x40\n  3736: u64 [sp + 72] = 0\n  3739: ra = 62, jump @8\n      : @74 [@dyn 31] (gas: 3)\n  3744: a1 = 0x24\n  3747: a0 = 0\n  3749: ra = 64, jump @0\n      : @75 [@dyn 32] (gas: 6)\n  3754: i32 a1 = a0 + 0\n  3756: a0 = 0x1\n  3759: a2 = 0x24\n  3762: ra = 0x42\n  3765: ecalli 5 // 'seal_return'\n  3767: fallthrough\n      : @76 [@dyn 33] (gas: 7)\n  3768: a3 = u64 [a1 + 0x18]\n  3771: a4 = u64 [a1 + 0x10]\n  3774: a2 = u64 [a1 + 0x8]\n  3777: a3 = a3 | a4\n  3780: a4 = a2 <u 0x1\n  3783: a4 = 0 if a3 != 0\n  3785: jump @78 if a4 == 0\n      : @77 (gas: 16)\n  3788: a1 = u64 [a1]\n  3790: a3 = a1 + 0x1f\n  3793: a1 = a3 <u a1\n  3796: a1 = a1 + a2\n  3799: a1 = a1 & 0x1\n  3802: a3 = a3 & 0xffffffffffffffe0\n  3805: a2 = a3 + 0x20\n  3808: a3 = a2 <u a3\n  3811: a4 = a1 + a3\n  3814: a1 = a4 <u a1\n  3817: a1 = a3 if a3 == 0\n  3820: u64 [a0 + 24] = 0\n  3823: u64 [a0] = a2\n  3825: u64 [a0 + 0x8] = a4\n  3828: u64 [a0 + 0x10] = a1\n  3831: ret\n      : @78 (gas: 13)\n  3833: sp = sp + 0xffffffffffffffb0\n  3836: u64 [sp + 0x48] = ra\n  3839: u64 [sp + 0x40] = s0\n  3842: s0 = sp + 0x50\n  3845: sp = sp & 0xfffffffffffffff0\n  3848: u64 [sp + 48] = 0\n  3851: u64 [sp + 40] = 0\n  3854: u64 [sp + 32] = 0\n  3857: a0 = 0x4e487b7100000000\n  3867: a1 = sp + 0x20\n  3870: u64 [sp + 0x38] = a0\n  3873: a0 = 0\n  3875: ra = 68, jump @8\n      : @79 [@dyn 34] (gas: 7)\n  3880: u64 [sp + 24] = 0\n  3883: u64 [sp + 16] = 0\n  3886: u64 [sp + 0] = 0x41\n  3889: a0 = 0x4\n  3892: a1 = sp\n  3894: u64 [sp + 8] = 0\n  3897: ra = 70, jump @8\n      : @80 [@dyn 35] (gas: 3)\n  3902: a1 = 0x24\n  3905: a0 = 0\n  3907: ra = 72, jump @0\n      : @81 [@dyn 36] (gas: 6)\n  3912: i32 a1 = a0 + 0\n  3914: a0 = 0x1\n  3917: a2 = 0x24\n  3920: ra = 0x4a\n  3923: ecalli 5 // 'seal_return'\n  3925: fallthrough\n      : @82 [@dyn 37] (gas: 16)\n  3926: sp = sp + 0xffffffffffffffa8\n  3929: u64 [sp + 0x50] = ra\n  3932: u64 [sp + 0x48] = s0\n  3935: u64 [sp + 0x40] = s1\n  3938: a3 = u64 [a0 + 0x10]\n  3941: a4 = u64 [a0 + 0x18]\n  3944: a5 = u64 [a0 + 0x8]\n  3947: a0 = u64 [a0]\n  3949: a4 = a4 | a5\n  3952: a5 = a0 | a3\n  3955: a5 = a5 | a4\n  3958: a5 = a5 >> 0x20\n  3961: a3 = a3 | a4\n  3964: a3 = a3 << 0x20\n  3967: a3 = a3 | a5\n  3970: jump @90 if a3 != 0\n      : @83 (gas: 12)\n  3974: a4 = u64 [a2 + 0x18]\n  3977: a5 = u64 [a2 + 0x10]\n  3980: s0 = u64 [a2]\n  3982: s1 = u64 [a2 + 0x8]\n  3985: a2 = s0 | a5\n  3988: a3 = s1 | a4\n  3991: a2 = a2 | a3\n  3994: a2 = a2 >> 0x20\n  3997: a3 = a3 | a5\n  4000: a3 = a3 << 0x20\n  4003: a2 = a2 | a3\n  4006: jump @90 if a2 != 0\n      : @84 (gas: 18)\n  4010: u64 [sp + 0x28] = s1\n  4013: u64 [sp + 0x30] = a5\n  4016: u64 [sp + 0x38] = a4\n  4019: a2 = u64 [a1 + 0x18]\n  4022: a3 = u64 [a1 + 0x10]\n  4025: a5 = u64 [a1]\n  4027: a4 = u64 [a1 + 0x8]\n  4030: a1 = a5 | a3\n  4033: u64 [sp + 0x20] = a2\n  4036: u64 [sp + 0x10] = a4\n  4039: a2 = a2 | a4\n  4042: a1 = a1 | a2\n  4045: a1 = a1 >> 0x20\n  4048: u64 [sp + 0x18] = a3\n  4051: a2 = a2 | a3\n  4054: a2 = a2 << 0x20\n  4057: a1 = a1 | a2\n  4060: jump @90 if a1 != 0\n      : @85 (gas: 7)\n  4064: i32 a0 = a0 + 0\n  4066: u64 [sp + 0x8] = a0\n  4069: i32 a0 = a5 + 0\n  4071: i32 s1 = s0 + 0\n  4073: a1 = s1\n  4075: u64 [sp] = a5\n  4077: ra = 76, jump @0\n      : @86 [@dyn 38] (gas: 5)\n  4082: i32 a0 = a0 + 0\n  4084: a1 = s1\n  4086: a2 = u64 [sp + 0x8]\n  4089: ecalli 1 // 'call_data_copy'\n  4091: fallthrough\n      : @87 (gas: 29)\n  4092: a0 = u64 [sp]\n  4094: a0 = a0 + s0\n  4097: a1 = a0 <u s0\n  4100: a4 = u64 [sp + 0x28]\n  4103: a2 = u64 [sp + 0x10]\n  4106: a2 = a2 + a4\n  4109: a2 = a2 + a1\n  4112: a3 = a2 ^ a4\n  4115: a4 = a2 <u a4\n  4118: a4 = a1 if a3 == 0\n  4121: a5 = u64 [sp + 0x30]\n  4124: a1 = u64 [sp + 0x18]\n  4127: a1 = a1 + a5\n  4130: a4 = a4 + a1\n  4133: a3 = a4 <u a1\n  4136: a1 = a1 <u a5\n  4139: a5 = u64 [sp + 0x38]\n  4142: s1 = u64 [sp + 0x20]\n  4145: a5 = a5 + s1\n  4148: a1 = a1 + a5\n  4151: a1 = a1 + a3\n  4154: a3 = a0 | a4\n  4157: a1 = a1 | a2\n  4160: a3 = a3 | a1\n  4163: a3 = a3 >> 0x20\n  4166: a1 = a1 | a4\n  4169: a1 = a1 << 0x20\n  4172: a1 = a1 | a3\n  4175: jump @90 if a1 != 0\n      : @88 (gas: 3)\n  4178: i32 a0 = a0 + 0\n  4180: a1 = 0x20\n  4183: ra = 78, jump @0\n      : @89 [@dyn 39] (gas: 37)\n  4188: u8 [a0 + 31] = 0\n  4191: u8 [a0 + 30] = 0\n  4194: u8 [a0 + 29] = 0\n  4197: u8 [a0 + 28] = 0\n  4200: u8 [a0 + 27] = 0\n  4203: u8 [a0 + 26] = 0\n  4206: u8 [a0 + 25] = 0\n  4209: u8 [a0 + 24] = 0\n  4212: u8 [a0 + 23] = 0\n  4215: u8 [a0 + 22] = 0\n  4218: u8 [a0 + 21] = 0\n  4221: u8 [a0 + 20] = 0\n  4224: u8 [a0 + 19] = 0\n  4227: u8 [a0 + 18] = 0\n  4230: u8 [a0 + 17] = 0\n  4233: u8 [a0 + 16] = 0\n  4236: u8 [a0 + 15] = 0\n  4239: u8 [a0 + 14] = 0\n  4242: u8 [a0 + 13] = 0\n  4245: u8 [a0 + 12] = 0\n  4248: u8 [a0 + 11] = 0\n  4251: u8 [a0 + 10] = 0\n  4254: u8 [a0 + 9] = 0\n  4257: u8 [a0 + 8] = 0\n  4260: u8 [a0 + 7] = 0\n  4263: u8 [a0 + 6] = 0\n  4266: u8 [a0 + 5] = 0\n  4269: u8 [a0 + 4] = 0\n  4272: u8 [a0 + 3] = 0\n  4275: u8 [a0 + 2] = 0\n  4278: u8 [a0 + 1] = 0\n  4281: u8 [a0 + 0] = 0\n  4283: ra = u64 [sp + 0x50]\n  4286: s0 = u64 [sp + 0x48]\n  4289: s1 = u64 [sp + 0x40]\n  4292: sp = sp + 0x58\n  4295: ret\n      : @90 (gas: 1)\n  4297: trap\n      : @91 (gas: 16)\n  4298: sp = sp + 0xfffffffffffffee0\n  4302: u64 [sp + 0x118] = ra\n  4306: u64 [sp + 0x110] = s0\n  4310: u64 [sp + 0x108] = s1\n  4314: s0 = sp + 0x120\n  4318: sp = sp & 0xfffffffffffffff0\n  4321: a4 = u64 [a2 + 0x18]\n  4324: a5 = u64 [a2 + 0x10]\n  4327: s1 = u64 [a2 + 0x8]\n  4330: u64 [sp + 0x50] = a4\n  4333: u64 [sp + 0x48] = a5\n  4336: a4 = a4 | a5\n  4339: a5 = s1 <u 0x1\n  4342: a5 = 0 if a4 != 0\n  4344: u64 [sp] = a0\n  4346: jump @105 if a5 == 0\n      : @92 (gas: 54)\n  4350: a0 = u64 [a3 + 0x18]\n  4353: u64 [sp + 0x18] = a0\n  4356: a0 = u64 [a3 + 0x10]\n  4359: u64 [sp + 0x20] = a0\n  4362: a0 = u64 [a3 + 0x8]\n  4365: u64 [sp + 0x8] = a0\n  4368: a0 = u64 [a3]\n  4370: u64 [sp + 0x10] = a0\n  4373: a2 = u64 [a2]\n  4375: a0 = u64 [a1 + 0x18]\n  4378: u64 [sp + 0x70] = a0\n  4381: a0 = u64 [a1 + 0x10]\n  4384: u64 [sp + 0x78] = a0\n  4387: a0 = u64 [a1 + 0x8]\n  4390: u64 [sp + 0x68] = a0\n  4393: a0 = u64 [a1]\n  4395: u64 [sp + 0x60] = a0\n  4398: a0 = a2 + 0x1f\n  4401: u64 [sp + 0x40] = a2\n  4404: a1 = a0 <u a2\n  4407: a1 = a1 + s1\n  4410: a1 = a1 & 0x1\n  4413: a0 = a0 & 0xffffffffffffffe0\n  4416: a2 = a0 + 0x20\n  4419: a0 = a2 <u a0\n  4422: a3 = a1 + a0\n  4425: a4 = a3 <u a1\n  4428: a4 = a0 if a0 == 0\n  4431: u64 [sp + 216] = 0\n  4435: u64 [sp + 0xc0] = a2\n  4439: u64 [sp + 0xc8] = a3\n  4443: a0 = sp + 0xe0\n  4447: a1 = sp + 0xc0\n  4451: u64 [sp + 0xd0] = a4\n  4455: ra = 0x50\n  4458: sp = sp + 0xffffffffffffff60\n  4462: u64 [sp + 0x98] = ra\n  4466: u64 [sp + 0x90] = s0\n  4470: u64 [sp + 0x88] = s1\n  4474: s0 = sp + 0xa0\n  4478: sp = sp & 0xfffffffffffffff0\n  4481: a2 = u64 [a1 + 0x18]\n  4484: u64 [sp + 0x30] = a2\n  4487: a2 = u64 [a1 + 0x10]\n  4490: u64 [sp + 0x28] = a2\n  4493: a2 = u64 [a1 + 0x8]\n  4496: u64 [sp + 0x20] = a2\n  4499: a1 = u64 [a1]\n  4501: u64 [sp + 0x18] = a1\n  4504: u64 [sp + 0x38] = a0\n  4507: a0 = 0x40\n  4510: a1 = 0x20\n  4513: ra = 0x38\n  4516: jump @0\n      : @93 [@dyn 40] (gas: 15)\n  4519: a0 = u64 [sp + 0xf8]\n  4523: a2 = u64 [sp + 0xf0]\n  4527: a1 = u64 [sp + 0xe8]\n  4531: a3 = u64 [sp + 0xe0]\n  4535: u64 [sp + 0x58] = a0\n  4538: u64 [sp + 0x30] = a1\n  4541: a0 = a0 | a1\n  4544: a1 = a3 | a2\n  4547: a1 = a1 | a0\n  4550: a1 = a1 >> 0x20\n  4553: u64 [sp + 0x38] = a2\n  4556: a0 = a0 | a2\n  4559: a0 = a0 << 0x20\n  4562: a0 = a0 | a1\n  4565: jump @104 if a0 != 0\n      : @94 (gas: 4)\n  4569: u64 [sp + 0x28] = a3\n  4572: i32 a0 = a3 + 0\n  4574: a1 = 0x20\n  4577: ra = 82, jump @0\n      : @95 [@dyn 41] (gas: 102)\n  4582: t2 = u64 [sp + 0x40]\n  4585: a1 = u64 [sp + 0x60]\n  4588: a1 = a1 + t2\n  4591: a3 = a1 <u t2\n  4594: a2 = u64 [sp + 0x68]\n  4597: a2 = a2 + s1\n  4600: a4 = a2 + a3\n  4603: a5 = a4 ^ s1\n  4606: a2 = a4 <u s1\n  4609: a2 = a3 if a5 == 0\n  4612: a5 = u64 [sp + 0x8]\n  4615: a3 = a4 ^ a5\n  4618: a4 = a5 <u a4\n  4621: a5 = u64 [sp + 0x10]\n  4624: a1 = a5 <u a1\n  4627: ra = u64 [sp + 0x48]\n  4630: a5 = u64 [sp + 0x78]\n  4633: a5 = a5 + ra\n  4636: a1 = a4 if a3 != 0\n  4639: a3 = a5 <u ra\n  4642: t1 = u64 [sp + 0x50]\n  4645: a4 = u64 [sp + 0x70]\n  4648: a4 = a4 + t1\n  4651: a3 = a3 + a4\n  4654: a2 = a2 + a5\n  4657: a4 = a2 <u a5\n  4660: a3 = a3 + a4\n  4663: a5 = u64 [sp + 0x18]\n  4666: a4 = a3 ^ a5\n  4669: a3 = a5 <u a3\n  4672: t0 = u64 [sp + 0x20]\n  4675: a5 = t0 <u a2\n  4678: a3 = a5 if a4 == 0\n  4681: a2 = a2 ^ t0\n  4684: a2 = a2 | a4\n  4687: a1 = a3 if a2 != 0\n  4690: a2 = reverse t2\n  4692: a3 = a2 >> 0x38\n  4695: u8 [a0 + 0x1f] = a3\n  4698: a3 = a2 >> 0x30\n  4701: u8 [a0 + 0x1e] = a3\n  4704: a3 = a2 >> 0x28\n  4707: u8 [a0 + 0x1d] = a3\n  4710: a3 = a2 >> 0x20\n  4713: u8 [a0 + 0x1c] = a3\n  4716: a3 = a2 >> 0x18\n  4719: u8 [a0 + 0x1b] = a3\n  4722: a3 = a2 >> 0x10\n  4725: u8 [a0 + 0x1a] = a3\n  4728: a3 = a2 >> 0x8\n  4731: u8 [a0 + 0x19] = a3\n  4734: a3 = reverse s1\n  4736: u8 [a0 + 0x18] = a2\n  4739: a2 = a3 >> 0x38\n  4742: u8 [a0 + 0x17] = a2\n  4745: a2 = a3 >> 0x30\n  4748: u8 [a0 + 0x16] = a2\n  4751: a2 = a3 >> 0x28\n  4754: u8 [a0 + 0x15] = a2\n  4757: a2 = a3 >> 0x20\n  4760: u8 [a0 + 0x14] = a2\n  4763: a2 = a3 >> 0x18\n  4766: u8 [a0 + 0x13] = a2\n  4769: a2 = a3 >> 0x10\n  4772: u8 [a0 + 0x12] = a2\n  4775: a2 = reverse ra\n  4777: u8 [a0 + 0x10] = a3\n  4780: a3 = a3 >> 0x8\n  4783: u8 [a0 + 0x11] = a3\n  4786: a3 = a2 >> 0x38\n  4789: u8 [a0 + 0xf] = a3\n  4792: a3 = a2 >> 0x30\n  4795: u8 [a0 + 0xe] = a3\n  4798: a3 = a2 >> 0x28\n  4801: u8 [a0 + 0xd] = a3\n  4804: a3 = a2 >> 0x20\n  4807: u8 [a0 + 0xc] = a3\n  4810: a3 = a2 >> 0x18\n  4813: u8 [a0 + 0xb] = a3\n  4816: a3 = a2 >> 0x10\n  4819: u8 [a0 + 0xa] = a3\n  4822: a3 = reverse t1\n  4824: u8 [a0 + 0x8] = a2\n  4827: a2 = a2 >> 0x8\n  4830: u8 [a0 + 0x9] = a2\n  4833: a2 = a3 >> 0x38\n  4836: u8 [a0 + 0x7] = a2\n  4839: a2 = a3 >> 0x30\n  4842: u8 [a0 + 0x6] = a2\n  4845: a2 = a3 >> 0x28\n  4848: u8 [a0 + 0x5] = a2\n  4851: a2 = a3 >> 0x20\n  4854: u8 [a0 + 0x4] = a2\n  4857: a2 = a3 >> 0x18\n  4860: u8 [a0 + 0x3] = a2\n  4863: a2 = a3 >> 0x10\n  4866: u8 [a0 + 0x2] = a2\n  4869: u8 [a0] = a3\n  4871: a3 = a3 >> 0x8\n  4874: u8 [a0 + 0x1] = a3\n  4877: t0 = u64 [sp + 0x60]\n  4880: jump @109 if a1 != 0\n      : @96 (gas: 12)\n  4884: a2 = u64 [sp + 0x78]\n  4887: a0 = t0 | a2\n  4890: a1 = u64 [sp + 0x70]\n  4893: a3 = u64 [sp + 0x68]\n  4896: a1 = a1 | a3\n  4899: a0 = a0 | a1\n  4902: a0 = a0 >> 0x20\n  4905: a1 = a1 | a2\n  4908: a1 = a1 << 0x20\n  4911: a0 = a0 | a1\n  4914: a3 = u64 [sp + 0x58]\n  4917: jump @104 if a0 != 0\n      : @97 (gas: 11)\n  4921: a0 = t2 | ra\n  4924: a1 = s1 | t1\n  4927: a0 = a0 | a1\n  4930: a0 = a0 >> 0x20\n  4933: a1 = a1 | ra\n  4936: a1 = a1 << 0x20\n  4939: a0 = a0 | a1\n  4942: a2 = u64 [sp + 0x38]\n  4945: a4 = u64 [sp + 0x30]\n  4948: a5 = u64 [sp + 0x28]\n  4951: jump @104 if a0 != 0\n      : @98 (gas: 7)\n  4955: u64 [sp + 0x78] = s1\n  4958: a0 = a2 | a3\n  4961: a1 = 0xffffffe0\n  4971: a1 = a5 <u a1\n  4974: a1 = 0 if a4 != 0\n  4976: a1 = 0 if a0 != 0\n  4978: jump @104 if a1 == 0\n      : @99 (gas: 16)\n  4982: s1 = a5 + 0x20\n  4985: a0 = s1 <u a5\n  4988: a1 = a4 + a0\n  4991: u64 [sp + 0x20] = a1\n  4994: a1 = a1 <u a4\n  4997: a1 = a0 if a0 == 0\n  5000: a1 = a1 + a2\n  5003: u64 [sp + 0x68] = a1\n  5006: a0 = a1 <u a2\n  5009: u64 [sp + 0x70] = a0\n  5012: i32 t0 = t0 + 0\n  5014: u64 [sp + 0x60] = t0\n  5017: i32 a0 = s1 + 0\n  5019: i32 a1 = t2 + 0\n  5021: u64 [sp + 0x18] = a1\n  5024: ra = 84, jump @0\n      : @100 [@dyn 42] (gas: 5)\n  5029: i32 a0 = a0 + 0\n  5031: a1 = u64 [sp + 0x18]\n  5034: a2 = u64 [sp + 0x60]\n  5037: ecalli 1 // 'call_data_copy'\n  5039: fallthrough\n      : @101 (gas: 31)\n  5040: a0 = u64 [sp + 0x40]\n  5043: a0 = a0 + s1\n  5046: a1 = a0 <u s1\n  5049: a2 = u64 [sp + 0x78]\n  5052: a4 = u64 [sp + 0x20]\n  5055: a2 = a2 + a4\n  5058: a2 = a2 + a1\n  5061: a3 = a2 ^ a4\n  5064: a4 = a2 <u a4\n  5067: a4 = a1 if a3 == 0\n  5070: a1 = u64 [sp + 0x48]\n  5073: a3 = u64 [sp + 0x68]\n  5076: a1 = a1 + a3\n  5079: a4 = a4 + a1\n  5082: t0 = a4 <u a1\n  5085: a1 = a1 <u a3\n  5088: a5 = u64 [sp + 0x50]\n  5091: s1 = u64 [sp + 0x58]\n  5094: a5 = a5 + s1\n  5097: a3 = u64 [sp + 0x70]\n  5100: a5 = a5 + a3\n  5103: a1 = a1 + a5\n  5106: a1 = a1 + t0\n  5109: a3 = a0 | a4\n  5112: a1 = a1 | a2\n  5115: a3 = a3 | a1\n  5118: a3 = a3 >> 0x20\n  5121: a1 = a1 | a4\n  5124: a1 = a1 << 0x20\n  5127: a1 = a1 | a3\n  5130: jump @104 if a1 != 0\n      : @102 (gas: 3)\n  5134: i32 a0 = a0 + 0\n  5136: a1 = 0x20\n  5139: ra = 86, jump @0\n      : @103 [@dyn 43] (gas: 46)\n  5144: u8 [a0 + 31] = 0\n  5147: u8 [a0 + 30] = 0\n  5150: u8 [a0 + 29] = 0\n  5153: u8 [a0 + 28] = 0\n  5156: u8 [a0 + 27] = 0\n  5159: u8 [a0 + 26] = 0\n  5162: u8 [a0 + 25] = 0\n  5165: u8 [a0 + 24] = 0\n  5168: u8 [a0 + 23] = 0\n  5171: u8 [a0 + 22] = 0\n  5174: u8 [a0 + 21] = 0\n  5177: u8 [a0 + 20] = 0\n  5180: u8 [a0 + 19] = 0\n  5183: u8 [a0 + 18] = 0\n  5186: u8 [a0 + 17] = 0\n  5189: u8 [a0 + 16] = 0\n  5192: u8 [a0 + 15] = 0\n  5195: u8 [a0 + 14] = 0\n  5198: u8 [a0 + 13] = 0\n  5201: u8 [a0 + 12] = 0\n  5204: u8 [a0 + 11] = 0\n  5207: u8 [a0 + 10] = 0\n  5210: u8 [a0 + 9] = 0\n  5213: u8 [a0 + 8] = 0\n  5216: u8 [a0 + 7] = 0\n  5219: u8 [a0 + 6] = 0\n  5222: u8 [a0 + 5] = 0\n  5225: u8 [a0 + 4] = 0\n  5228: u8 [a0 + 3] = 0\n  5231: u8 [a0 + 2] = 0\n  5234: u8 [a0 + 1] = 0\n  5237: u8 [a0 + 0] = 0\n  5239: a0 = u64 [sp]\n  5241: a1 = u64 [sp + 0x28]\n  5244: u64 [a0] = a1\n  5246: u64 [a0 + 0x18] = s1\n  5249: a1 = u64 [sp + 0x30]\n  5252: u64 [a0 + 0x8] = a1\n  5255: a1 = u64 [sp + 0x38]\n  5258: u64 [a0 + 0x10] = a1\n  5261: sp = s0 + 0xfffffffffffffee0\n  5265: ra = u64 [sp + 0x118]\n  5269: s0 = u64 [sp + 0x110]\n  5273: s1 = u64 [sp + 0x108]\n  5277: sp = sp + 0x120\n  5281: ret\n      : @104 (gas: 1)\n  5283: trap\n      : @105 (gas: 8)\n  5284: u64 [sp + 176] = 0\n  5288: u64 [sp + 168] = 0\n  5292: u64 [sp + 160] = 0\n  5296: a0 = 0x4e487b7100000000\n  5306: a1 = sp + 0xa0\n  5310: u64 [sp + 0xb8] = a0\n  5314: a0 = 0\n  5316: ra = 88, jump @8\n      : @106 [@dyn 44] (gas: 7)\n  5321: u64 [sp + 152] = 0\n  5325: u64 [sp + 144] = 0\n  5329: u64 [sp + 128] = 0x41\n  5334: a0 = 0x4\n  5337: a1 = sp + 0x80\n  5341: u64 [sp + 136] = 0\n  5345: ra = 90, jump @8\n      : @107 [@dyn 45] (gas: 3)\n  5350: a1 = 0x24\n  5353: a0 = 0\n  5355: ra = 92, jump @0\n      : @108 [@dyn 46] (gas: 5)\n  5360: i32 a1 = a0 + 0\n  5362: a0 = 0x1\n  5365: a2 = 0x24\n  5368: ecalli 5 // 'seal_return'\n  5370: fallthrough\n      : @109 (gas: 3)\n  5371: a0 = 0\n  5373: a1 = 0\n  5375: ra = 94, jump @0\n      : @110 [@dyn 47] (gas: 6)\n  5380: i32 a1 = a0 + 0\n  5382: a0 = 0x1\n  5385: a2 = 0\n  5387: ra = 0x60\n  5390: ecalli 5 // 'seal_return'\n  5392: fallthrough\n      : @111 [@dyn 48] (gas: 33)\n  5393: sp = sp + 0xffffffffffffff60\n  5397: u64 [sp + 0x98] = ra\n  5401: u64 [sp + 0x90] = s0\n  5405: u64 [sp + 0x88] = s1\n  5409: s0 = sp + 0xa0\n  5413: sp = sp & 0xfffffffffffffff0\n  5416: t0 = u64 [a1]\n  5418: t1 = u64 [a1 + 0x8]\n  5421: t2 = u64 [a1 + 0x10]\n  5424: ra = u64 [a1 + 0x18]\n  5427: a4 = u64 [a2]\n  5429: a3 = u64 [a2 + 0x8]\n  5432: a5 = u64 [a2 + 0x10]\n  5435: a2 = u64 [a2 + 0x18]\n  5438: a1 = u32 [0x20004]\n  5443: s1 = a0\n  5445: u64 [sp + 24] = 0\n  5448: u64 [sp + 16] = 0\n  5451: u64 [sp + 8] = 0\n  5454: u64 [sp] = a1\n  5456: u64 [sp + 0x38] = a2\n  5459: u64 [sp + 0x30] = a5\n  5462: u64 [sp + 0x28] = a3\n  5465: u64 [sp + 0x20] = a4\n  5468: u64 [sp + 0x58] = ra\n  5471: u64 [sp + 0x50] = t2\n  5474: u64 [sp + 0x48] = t1\n  5477: a0 = sp + 0x60\n  5480: a1 = sp + 0x40\n  5483: a2 = sp + 0x20\n  5486: a3 = sp\n  5488: u64 [sp + 0x40] = t0\n  5491: ra = 98, jump @91\n      : @112 [@dyn 49] (gas: 14)\n  5496: a0 = u64 [sp + 0x70]\n  5499: a1 = u64 [sp + 0x78]\n  5502: a2 = u64 [sp + 0x60]\n  5505: a3 = u64 [sp + 0x68]\n  5508: u64 [s1 + 0x10] = a0\n  5511: u64 [s1 + 0x18] = a1\n  5514: u64 [s1] = a2\n  5516: u64 [s1 + 0x8] = a3\n  5519: sp = s0 + 0xffffffffffffff60\n  5523: ra = u64 [sp + 0x98]\n  5527: s0 = u64 [sp + 0x90]\n  5531: s1 = u64 [sp + 0x88]\n  5535: sp = sp + 0xa0\n  5539: ret\n      : @113 (gas: 20)\n  5541: sp = sp + 0xfffffffffffffd80\n  5545: u64 [sp + 0x278] = ra\n  5549: u64 [sp + 0x270] = s0\n  5553: u64 [sp + 0x268] = s1\n  5557: s0 = sp + 0x280\n  5561: sp = sp & 0xffffffffffffffe0\n  5564: s1 = u64 [a2 + 0x18]\n  5567: t0 = u64 [a2 + 0x10]\n  5570: t1 = u64 [a2]\n  5572: a5 = u64 [a2 + 0x8]\n  5575: a2 = s1 >u 0\n  5577: a3 = t0 >u 0\n  5579: a3 = a2 if s1 != 0\n  5582: a2 = a5 >u 0\n  5584: a4 = t1 <u 0x14\n  5587: a4 = a4 ^ 0x1\n  5590: a4 = a2 if a5 != 0\n  5593: a2 = t0 | s1\n  5596: a4 = a3 if a2 != 0\n  5599: jump @126 if a4 == 0\n      : @114 (gas: 20)\n  5603: u64 [sp + 0x120] = t1\n  5607: u64 [sp + 0x128] = a5\n  5611: u64 [sp + 0x138] = s1\n  5615: u64 [sp + 0x130] = t0\n  5619: u64 [sp + 0x100] = a0\n  5623: a2 = u64 [a1 + 0x18]\n  5626: a3 = u64 [a1 + 0x10]\n  5629: s1 = u64 [a1]\n  5631: a1 = u64 [a1 + 0x8]\n  5634: a0 = s1 | a3\n  5637: u64 [sp + 0x118] = a2\n  5641: u64 [sp + 0x108] = a1\n  5645: a1 = a1 | a2\n  5648: a0 = a0 | a1\n  5651: a0 = a0 >> 0x20\n  5654: u64 [sp + 0x110] = a3\n  5658: a1 = a1 | a3\n  5661: a1 = a1 << 0x20\n  5664: a0 = a0 | a1\n  5667: jump @125 if a0 != 0\n      : @115 (gas: 57)\n  5671: i32 a1 = s1 + 0\n  5673: i32 a0 = sp + 0x240\n  5677: ecalli 2 // 'call_data_load'\n  5679: t1 = s1 + 0x14\n  5682: a2 = t1 <u s1\n  5685: a0 = u64 [sp + 0x108]\n  5689: t2 = a0 + a2\n  5692: a3 = t2 <u a0\n  5695: a3 = a2 if a2 == 0\n  5698: a0 = u64 [sp + 0x110]\n  5702: t0 = a0 + a3\n  5705: a3 = t0 <u a0\n  5708: a0 = u64 [sp + 0x118]\n  5712: a3 = a3 + a0\n  5715: u64 [sp + 0x118] = a3\n  5719: a0 = u64 [sp + 0x120]\n  5723: a4 = a0 + 0xffffffffffffffec\n  5726: s1 = a4 <u a0\n  5729: a0 = u64 [sp + 0x128]\n  5733: a5 = a0 + s1\n  5736: a5 = a5 + 0xffffffffffffffff\n  5739: a3 = a5 ^ a0\n  5742: a0 = a5 <u a0\n  5745: a0 = s1 if a3 == 0\n  5748: ra = u64 [sp + 0x130]\n  5752: a3 = ra <u 0x1\n  5755: a1 = u64 [sp + 0x138]\n  5759: a3 = a1 - a3\n  5762: a1 = u64 [sp + 0x258]\n  5766: u64 [sp + 0x138] = a1\n  5770: a1 = ra + 0xffffffffffffffff\n  5773: s1 = u32 [0x20004]\n  5778: a2 = u64 [sp + 0x250]\n  5782: u64 [sp + 0x110] = a2\n  5786: a2 = u64 [sp + 0x248]\n  5790: u64 [sp + 0x108] = a2\n  5794: a0 = a0 + a1\n  5797: ra = a0 <u a1\n  5800: ra = ra + a3\n  5803: u64 [sp + 344] = 0\n  5807: u64 [sp + 336] = 0\n  5811: u64 [sp + 328] = 0\n  5815: u64 [sp + 0x140] = s1\n  5819: u64 [sp + 0x168] = a5\n  5823: u64 [sp + 0x160] = a4\n  5827: u64 [sp + 0x188] = t2\n  5831: u64 [sp + 0x180] = t1\n  5835: u64 [sp + 0x190] = t0\n  5839: u64 [sp + 0x170] = a0\n  5843: a0 = u64 [sp + 0x118]\n  5847: u64 [sp + 0x198] = a0\n  5851: a0 = sp + 0x1a0\n  5855: a1 = sp + 0x180\n  5859: a2 = sp + 0x160\n  5863: a3 = sp + 0x140\n  5867: u64 [sp + 0x178] = ra\n  5871: ra = 100, jump @91\n      : @116 [@dyn 50] (gas: 15)\n  5876: a1 = u64 [sp + 0x1b8]\n  5880: a3 = u64 [sp + 0x1b0]\n  5884: a0 = u64 [sp + 0x1a8]\n  5888: a2 = u64 [sp + 0x1a0]\n  5892: u64 [sp + 0x130] = a0\n  5896: u64 [sp + 0x128] = a1\n  5900: a0 = a0 | a1\n  5903: a1 = a2 | a3\n  5906: a1 = a1 | a0\n  5909: a1 = a1 >> 0x20\n  5912: u64 [sp + 0x120] = a3\n  5916: a0 = a0 | a3\n  5919: a0 = a0 << 0x20\n  5922: a0 = a0 | a1\n  5925: jump @125 if a0 != 0\n      : @117 (gas: 15)\n  5929: s1 = u64 [sp + 0x110]\n  5933: a0 = s1 >> 0x20\n  5936: a1 = u64 [sp + 0x138]\n  5940: a1 = a1 << 0x20\n  5943: a0 = a0 | a1\n  5946: u64 [sp + 0xf8] = a0\n  5950: a0 = u64 [sp + 0x108]\n  5954: a0 = a0 >> 0x20\n  5957: s1 = s1 << 0x20\n  5960: s1 = s1 | a0\n  5963: i32 a0 = a2 + 0\n  5965: a1 = 0x20\n  5968: u64 [sp] = a0\n  5970: u64 [sp + 0x118] = a2\n  5974: ra = 102, jump @0\n      : @118 [@dyn 51] (gas: 66)\n  5979: a1 = u8 [a0 + 0x18]\n  5982: u64 [sp + 0x28] = a1\n  5985: a1 = u8 [a0 + 0x19]\n  5988: u64 [sp + 0x8] = a1\n  5991: a1 = u8 [a0 + 0x1a]\n  5994: u64 [sp + 0x18] = a1\n  5997: a1 = u8 [a0 + 0x1b]\n  6000: u64 [sp + 0x10] = a1\n  6003: a1 = u8 [a0 + 0x1c]\n  6006: u64 [sp + 0x40] = a1\n  6009: a1 = u8 [a0 + 0x1d]\n  6012: u64 [sp + 0x20] = a1\n  6015: a1 = u8 [a0 + 0x1e]\n  6018: u64 [sp + 0x38] = a1\n  6021: a1 = u8 [a0 + 0x1f]\n  6024: u64 [sp + 0x30] = a1\n  6027: a1 = u8 [a0 + 0x10]\n  6030: u64 [sp + 0x68] = a1\n  6033: a1 = u8 [a0 + 0x11]\n  6036: u64 [sp + 0x48] = a1\n  6039: a1 = u8 [a0 + 0x12]\n  6042: u64 [sp + 0x58] = a1\n  6045: a1 = u8 [a0 + 0x13]\n  6048: u64 [sp + 0x50] = a1\n  6051: a1 = u8 [a0 + 0x14]\n  6054: u64 [sp + 0x80] = a1\n  6058: a1 = u8 [a0 + 0x15]\n  6061: u64 [sp + 0x60] = a1\n  6064: a1 = u8 [a0 + 0x16]\n  6067: u64 [sp + 0x78] = a1\n  6070: a1 = u8 [a0 + 0x17]\n  6073: u64 [sp + 0x70] = a1\n  6076: a1 = u8 [a0 + 0x8]\n  6079: u64 [sp + 0xa8] = a1\n  6083: a1 = u8 [a0 + 0x9]\n  6086: u64 [sp + 0x88] = a1\n  6090: a1 = u8 [a0 + 0xa]\n  6093: u64 [sp + 0x98] = a1\n  6097: a1 = u8 [a0 + 0xb]\n  6100: u64 [sp + 0x90] = a1\n  6104: a1 = u8 [a0 + 0xc]\n  6107: u64 [sp + 0xc0] = a1\n  6111: a1 = u8 [a0 + 0xd]\n  6114: u64 [sp + 0xa0] = a1\n  6118: a1 = u8 [a0 + 0xe]\n  6121: u64 [sp + 0xb8] = a1\n  6125: a1 = u8 [a0 + 0xf]\n  6128: u64 [sp + 0xb0] = a1\n  6132: a1 = u8 [a0]\n  6134: u64 [sp + 0xe8] = a1\n  6138: a1 = u8 [a0 + 0x1]\n  6141: u64 [sp + 0xc8] = a1\n  6145: a1 = u8 [a0 + 0x2]\n  6148: u64 [sp + 0xd8] = a1\n  6152: a1 = u8 [a0 + 0x3]\n  6155: u64 [sp + 0xd0] = a1\n  6159: a1 = u8 [a0 + 0x4]\n  6162: u64 [sp + 0x110] = a1\n  6166: a1 = u8 [a0 + 0x5]\n  6169: u64 [sp + 0xe0] = a1\n  6173: a1 = u8 [a0 + 0x6]\n  6176: u64 [sp + 0x108] = a1\n  6180: a0 = u8 [a0 + 0x7]\n  6183: u64 [sp + 0xf0] = a0\n  6187: ecalli 4 // 'ref_time_left'\n  6189: fallthrough\n      : @119 (gas: 30)\n  6190: a0 = reverse s1\n  6192: a1 = a0 << 0x20\n  6195: a2 = u64 [sp + 0xf8]\n  6199: a2 = reverse a2\n  6201: a3 = a2 >> 0x20\n  6204: a1 = a1 | a3\n  6207: a2 = a2 << 0x20\n  6210: a3 = u64 [sp + 0x138]\n  6214: a3 = reverse a3\n  6216: a3 = a3 << 0x20\n  6219: a3 = a3 >> 0x20\n  6222: a2 = a2 | a3\n  6225: a0 = a0 >> 0x20\n  6228: u32 [sp + 0x1d0] = a0\n  6232: u64 [sp + 0x1c8] = a1\n  6236: u64 [sp + 0x1c0] = a2\n  6240: u64 [sp + 504] = 0\n  6244: u64 [sp + 496] = 0\n  6248: u64 [sp + 488] = 0\n  6252: a0 = u64 [sp + 0x128]\n  6256: a1 = u64 [sp + 0x120]\n  6260: a0 = a0 | a1\n  6263: a1 = 0xffffffe0\n  6273: a2 = u64 [sp + 0x118]\n  6277: a1 = a2 <u a1\n  6280: a2 = u64 [sp + 0x130]\n  6284: a1 = 0 if a2 != 0\n  6286: a1 = 0 if a0 != 0\n  6288: u64 [sp + 480] = 0\n  6292: jump @125 if a1 == 0\n      : @120 (gas: 100)\n  6296: a0 = u64 [sp + 0x8]\n  6299: a0 = a0 << 0x8\n  6302: a1 = u64 [sp + 0x28]\n  6305: a0 = a0 | a1\n  6308: a1 = u64 [sp + 0x18]\n  6311: a1 = a1 << 0x10\n  6314: a2 = u64 [sp + 0x10]\n  6317: a2 = a2 << 0x18\n  6320: a1 = a1 | a2\n  6323: a0 = a0 | a1\n  6326: a1 = u64 [sp + 0x20]\n  6329: a1 = a1 << 0x8\n  6332: a2 = u64 [sp + 0x40]\n  6335: a1 = a1 | a2\n  6338: a2 = u64 [sp + 0x38]\n  6341: a2 = a2 << 0x10\n  6344: a3 = u64 [sp + 0x30]\n  6347: a3 = a3 << 0x18\n  6350: a2 = a2 | a3\n  6353: a1 = a1 | a2\n  6356: a1 = a1 << 0x20\n  6359: a0 = a0 | a1\n  6362: a1 = u64 [sp + 0x48]\n  6365: a1 = a1 << 0x8\n  6368: a2 = u64 [sp + 0x68]\n  6371: a1 = a1 | a2\n  6374: a2 = u64 [sp + 0x58]\n  6377: a2 = a2 << 0x10\n  6380: a3 = u64 [sp + 0x50]\n  6383: a3 = a3 << 0x18\n  6386: a2 = a2 | a3\n  6389: a1 = a1 | a2\n  6392: a2 = u64 [sp + 0x60]\n  6395: a2 = a2 << 0x8\n  6398: a3 = u64 [sp + 0x80]\n  6402: a2 = a2 | a3\n  6405: a3 = u64 [sp + 0x78]\n  6408: a3 = a3 << 0x10\n  6411: a4 = u64 [sp + 0x70]\n  6414: a4 = a4 << 0x18\n  6417: a3 = a3 | a4\n  6420: a2 = a2 | a3\n  6423: a2 = a2 << 0x20\n  6426: a1 = a1 | a2\n  6429: a2 = u64 [sp + 0x88]\n  6433: a2 = a2 << 0x8\n  6436: a3 = u64 [sp + 0xa8]\n  6440: a2 = a2 | a3\n  6443: a3 = u64 [sp + 0x98]\n  6447: a3 = a3 << 0x10\n  6450: a4 = u64 [sp + 0x90]\n  6454: a4 = a4 << 0x18\n  6457: a3 = a3 | a4\n  6460: a2 = a2 | a3\n  6463: a3 = u64 [sp + 0xa0]\n  6467: a3 = a3 << 0x8\n  6470: a4 = u64 [sp + 0xc0]\n  6474: a3 = a3 | a4\n  6477: a4 = u64 [sp + 0xb8]\n  6481: a4 = a4 << 0x10\n  6484: a5 = u64 [sp + 0xb0]\n  6488: a5 = a5 << 0x18\n  6491: a4 = a4 | a5\n  6494: a3 = a3 | a4\n  6497: a3 = a3 << 0x20\n  6500: a2 = a2 | a3\n  6503: a3 = u64 [sp + 0xc8]\n  6507: a3 = a3 << 0x8\n  6510: a4 = u64 [sp + 0xe8]\n  6514: a3 = a3 | a4\n  6517: a4 = u64 [sp + 0xd8]\n  6521: a4 = a4 << 0x10\n  6524: a5 = u64 [sp + 0xd0]\n  6528: a5 = a5 << 0x18\n  6531: a4 = a4 | a5\n  6534: a3 = a3 | a4\n  6537: a4 = u64 [sp + 0xe0]\n  6541: a4 = a4 << 0x8\n  6544: a5 = u64 [sp + 0x110]\n  6548: a4 = a4 | a5\n  6551: a5 = u64 [sp + 0x108]\n  6555: a5 = a5 << 0x10\n  6558: s1 = u64 [sp + 0xf0]\n  6562: s1 = s1 << 0x18\n  6565: a5 = a5 | s1\n  6568: a4 = a4 | a5\n  6571: a4 = a4 << 0x20\n  6574: a3 = a3 | a4\n  6577: a3 = reverse a3\n  6579: a2 = reverse a2\n  6581: a1 = reverse a1\n  6583: s1 = reverse a0\n  6585: a1 = a1 | a3\n  6588: a0 = s1 | a2\n  6591: a0 = a0 | a1\n  6594: a1 = a1 | a2\n  6597: a0 = a0 >> 0x20\n  6600: a1 = a1 << 0x20\n  6603: a0 = a0 | a1\n  6606: jump @125 if a0 != 0\n      : @121 (gas: 4)\n  6610: a0 = u64 [sp]\n  6612: i32 a0 = a0 + 0x20\n  6615: i32 a1 = s1 + 0\n  6617: ra = 104, jump @0\n      : @122 [@dyn 52] (gas: 4)\n  6622: u64 [sp + 0x138] = a0\n  6626: a1 = 0x20\n  6629: a0 = 0\n  6631: ra = 106, jump @0\n      : @123 [@dyn 53] (gas: 34)\n  6636: u32 [sp + 512] = 0x20\n  6641: u64 [sp + 568] = 0xffffffffffffffff\n  6646: u64 [sp + 560] = 0xffffffffffffffff\n  6651: u64 [sp + 552] = 0xffffffffffffffff\n  6656: u64 [sp + 544] = 0xffffffffffffffff\n  6661: a1 = sp + 0x1c0\n  6665: a1 = a1 << 0x20\n  6668: a1 = a1 >> 0x20\n  6671: a2 = 0x800000000\n  6681: t0 = a1 | a2\n  6684: a1 = sp + 0x1e0\n  6688: a1 = a1 << 0x20\n  6691: a1 = a1 >> 0x20\n  6694: a2 = sp + 0x220\n  6698: a2 = a2 << 0x20\n  6701: a3 = a2 | a1\n  6704: a1 = u64 [sp + 0x138]\n  6708: a1 = a1 << 0x20\n  6711: a1 = a1 >> 0x20\n  6714: a4 = s1 << 0x20\n  6717: a4 = a4 | a1\n  6720: a0 = a0 << 0x20\n  6723: a0 = a0 >> 0x20\n  6726: a1 = sp + 0x200\n  6730: a1 = a1 << 0x20\n  6733: a5 = a1 | a0\n  6736: a1 = 0xffffffffffffffff\n  6739: a2 = 0xffffffffffffffff\n  6742: a0 = t0\n  6744: ecalli 0 // 'call'\n  6745: s1 = a0\n  6747: a1 = 0x20\n  6750: a0 = 0\n  6752: ra = 108, jump @0\n      : @124 [@dyn 54] (gas: 107)\n  6757: a1 = u8 [a0 + 0x19]\n  6760: a2 = u8 [a0 + 0x18]\n  6763: a3 = u8 [a0 + 0x1a]\n  6766: a4 = u8 [a0 + 0x1b]\n  6769: a1 = a1 << 0x8\n  6772: a1 = a1 | a2\n  6775: a3 = a3 << 0x10\n  6778: a4 = a4 << 0x18\n  6781: a3 = a3 | a4\n  6784: a1 = a1 | a3\n  6787: a2 = u8 [a0 + 0x1d]\n  6790: a3 = u8 [a0 + 0x1c]\n  6793: a4 = u8 [a0 + 0x1e]\n  6796: a5 = u8 [a0 + 0x1f]\n  6799: a2 = a2 << 0x8\n  6802: a2 = a2 | a3\n  6805: a4 = a4 << 0x10\n  6808: a5 = a5 << 0x18\n  6811: a4 = a4 | a5\n  6814: a2 = a2 | a4\n  6817: a2 = a2 << 0x20\n  6820: t0 = a2 | a1\n  6823: a2 = u8 [a0 + 0x11]\n  6826: a3 = u8 [a0 + 0x10]\n  6829: a4 = u8 [a0 + 0x12]\n  6832: a5 = u8 [a0 + 0x13]\n  6835: a2 = a2 << 0x8\n  6838: a2 = a2 | a3\n  6841: a4 = a4 << 0x10\n  6844: a5 = a5 << 0x18\n  6847: a4 = a4 | a5\n  6850: a2 = a2 | a4\n  6853: a3 = u8 [a0 + 0x15]\n  6856: a4 = u8 [a0 + 0x14]\n  6859: a5 = u8 [a0 + 0x16]\n  6862: a1 = u8 [a0 + 0x17]\n  6865: a3 = a3 << 0x8\n  6868: a3 = a3 | a4\n  6871: a5 = a5 << 0x10\n  6874: a1 = a1 << 0x18\n  6877: a1 = a1 | a5\n  6880: a1 = a1 | a3\n  6883: a1 = a1 << 0x20\n  6886: t1 = a1 | a2\n  6889: a1 = u8 [a0 + 0x9]\n  6892: a3 = u8 [a0 + 0x8]\n  6895: a4 = u8 [a0 + 0xa]\n  6898: a5 = u8 [a0 + 0xb]\n  6901: a1 = a1 << 0x8\n  6904: a1 = a1 | a3\n  6907: a4 = a4 << 0x10\n  6910: a5 = a5 << 0x18\n  6913: a4 = a4 | a5\n  6916: a1 = a1 | a4\n  6919: a3 = u8 [a0 + 0xd]\n  6922: a4 = u8 [a0 + 0xc]\n  6925: a5 = u8 [a0 + 0xe]\n  6928: a2 = u8 [a0 + 0xf]\n  6931: a3 = a3 << 0x8\n  6934: a3 = a3 | a4\n  6937: a5 = a5 << 0x10\n  6940: a2 = a2 << 0x18\n  6943: a2 = a2 | a5\n  6946: a2 = a2 | a3\n  6949: a2 = a2 << 0x20\n  6952: a3 = a2 | a1\n  6955: a1 = u8 [a0 + 0x1]\n  6958: a2 = u8 [a0]\n  6960: a4 = u8 [a0 + 0x2]\n  6963: a5 = u8 [a0 + 0x3]\n  6966: a1 = a1 << 0x8\n  6969: a1 = a1 | a2\n  6972: a4 = a4 << 0x10\n  6975: a5 = a5 << 0x18\n  6978: a4 = a4 | a5\n  6981: a1 = a1 | a4\n  6984: a2 = u8 [a0 + 0x5]\n  6987: a4 = u8 [a0 + 0x4]\n  6990: a5 = u8 [a0 + 0x6]\n  6993: a0 = u8 [a0 + 0x7]\n  6996: a2 = a2 << 0x8\n  6999: a2 = a2 | a4\n  7002: a5 = a5 << 0x10\n  7005: a0 = a0 << 0x18\n  7008: a0 = a0 | a5\n  7011: a0 = a0 | a2\n  7014: a0 = a0 << 0x20\n  7017: a0 = a0 | a1\n  7020: a0 = reverse a0\n  7022: a1 = reverse a3\n  7024: a2 = reverse t1\n  7026: a3 = reverse t0\n  7028: a3 = 0 if s1 != 0\n  7030: a2 = 0 if s1 != 0\n  7032: a1 = 0 if s1 != 0\n  7034: a0 = 0 if s1 != 0\n  7036: a4 = u64 [sp + 0x100]\n  7040: u64 [a4 + 0x18] = a0\n  7043: u64 [a4 + 0x10] = a1\n  7046: u64 [a4 + 0x8] = a2\n  7049: u64 [a4] = a3\n  7051: sp = s0 + 0xfffffffffffffd80\n  7055: ra = u64 [sp + 0x278]\n  7059: s0 = u64 [sp + 0x270]\n  7063: s1 = u64 [sp + 0x268]\n  7067: sp = sp + 0x280\n  7071: ret\n      : @125 (gas: 1)\n  7073: trap\n      : @126 (gas: 3)\n  7074: a0 = 0\n  7076: a1 = 0\n  7078: ra = 110, jump @0\n      : @127 [@dyn 55] (gas: 7)\n  7083: i32 a1 = a0 + 0\n  7085: a0 = 0x1\n  7088: a2 = 0\n  7090: ecalli 5 // 'seal_return'\n  7092: a0 = 0\n  7094: ra = 0x70\n  7097: jump @10\n      : @128 [export #0: 'call'] (gas: 2)\n  7100: a0 = 0\n  7102: ra = 112, jump @10\n      : @129 [@dyn 56] [export #1: 'deploy'] (gas: 2)\n  7107: a0 = 0x1\n  7110: ra = 114, jump @10\n      : @130 [@dyn 57] (gas: 9)\n  7115: sp = sp + 0xffffffffffffffc0\n  7118: u64 [sp + 0x38] = ra\n  7121: u64 [sp + 0x30] = s0\n  7124: u64 [sp + 0x28] = s1\n  7127: s0 = sp + 0x40\n  7130: sp = sp & 0xfffffffffffffff0\n  7133: s1 = a0\n  7135: a0 = sp\n  7137: ra = 116, jump @34\n      : @131 [@dyn 58] (gas: 14)\n  7142: a0 = u64 [sp + 0x10]\n  7145: a1 = u64 [sp + 0x18]\n  7148: a2 = u64 [sp]\n  7150: a3 = u64 [sp + 0x8]\n  7153: u64 [s1 + 0x10] = a0\n  7156: u64 [s1 + 0x18] = a1\n  7159: u64 [s1] = a2\n  7161: u64 [s1 + 0x8] = a3\n  7164: sp = s0 + 0xffffffffffffffc0\n  7167: ra = u64 [sp + 0x38]\n  7170: s0 = u64 [sp + 0x30]\n  7173: s1 = u64 [sp + 0x28]\n  7176: sp = sp + 0x40\n  7179: ret\n",
				"bytecode": {
					"object": "50564d0000c120000000000000010700c11000c0004004808a08000000000400000012000000200000002e0000003b000000460000005800000063616c6c63616c6c5f646174615f636f707963616c6c5f646174615f6c6f616463616c6c5f646174615f73697a657265665f74696d655f6c6566747365616c5f72657475726e7365745f696d6d757461626c655f6461746176616c75655f7472616e736665727265640511029bbc0463616c6c9bc3066465706c6f7906a0073a029c0d65004d0152016f010302340349036d03790393034a045c0471049505a205330740078008da08e70850099609b309e40a040bb00bbd0bca0b750d880ea00eaa0eb80e280f3e0f480f560ff20f5c10a711e611a5131814c914e614f014041511157815f4165b17de19ec19651aab1bc31bcb1be61b8b791052093b3309010001ae9833c8780883881f8488e0553801000128390a000002ae8a123d080000023308100002c8870732003308100002c88707320000009511d87b10207b15187b161082897b19088289087b1982851082861883773308205010029f6f686f59821a6faa821b086fbb787b18787a10787908787898bc38787c1f98bc30787c1e98bc28787c1d98bc20787c1c98bc18787c1b98bc10787c1a98bb08787b1998ab38787b1798ab30787b1698ab28787b1598ab20787b1498ab18787b1398ab10787b1298aa08787a11989a38787a0f989a30787a0e989a28787a0d989a20787a0c989a18787a0b989a10787a0a98990878790998893878790798893078790698892878790598892078790498891878790398891078790298880878780182102082151882161095112832009511f07b10087b158475010a03013d07040002510507501004095010062c029511c07b10387b15307b16289515408411e033074033082050100896fe46171f800046171e46171d46171c46171b46171a46171946171846171746171646171546171446171346171246171146171046170f46170e46170d46170c46170b46170a4617094617084617074617064617054617044617034617024617014607491118490149110849111083170a0701821710821818821908821ad49808d4a707d487075207370133074033082050100a02fe7c78117c79107c7a127c7b13978808d4980897aa1097bb18d4ba0ad4a8087c79157c7a147c7b167c7c17979908d4a90997bb1097cc18d4cb0bd4b909979920d489027c79017c7a7c7b027c7c03979908d4a90997bb1097cc18d4cb0bd4b9097c7a057c7b047c7c067c760797aa08d4ba0a97cc10976618d46c0cd4ca0a97aa20d4a9097c7a197c7b187c7c1a7c761b97aa08d4ba0a97cc10976618d46c0cd4ca0a7c7b1d7c7c1c7c761e7c781f97bb08d4cb0b976610978818d46808d4b808978820d48a0a7c78097c7b087c7c0a7c760b978808d4b80897cc10976618d46c0cd4c8087c7b0d7c7c0c7c760e7c770f97bb08d4cb0b976610977718d46707d4b707977720d487076f776fa66f986f29d49808d47609d48909989920d48707977720d49707510717003307330850100cd1fc837833070133090a050183666467330850100ebcfc8377330833090a0101390808000251080d330710000383770a06016467330850101098fc8378330733093300120a05019511c07b10387b15309515408411e033074033082050101472fc46171f800046171e46171d46171c46171b46171a46171946171846171746171646171546171446171346171246171146171046170f46170e46170d46170c46170b46170a4617094617084617074617034617024617014607390804000246170646170546170453180451831733080a020180171c977720140800000000361a0e57ab87363300169511c0fe7b1038017b1530017b162801951540018411e049211801492110014921080149210001831700010a0728b5043300189511f87b103307330833001c28a7fb9511f07b10087b15647533074033082050101a94fb7c78017c797c7a027c7b03978808d4980897aa1097bb18d4ba0ad4a8087c79057c7a047c7b067c7c07979908d4a90997bb1097cc18d4cb0bd4b909979920d489027c79097c7a087c7b0a7c7c0b979908d4a90997bb1097cc18d4cb0bd4b9097c7a0d7c7b0c7c7c0e7c780f97aa08d4ba0a97cc10978818d4c808d4a808978820d498037c78117c7a107c7b127c7c13978808d4a80897bb1097cc18d4cb0bd4b8087c7a157c7b147c7c167c791797aa08d4ba0a97cc10979918d4c909d4a909979920d4890a7c78197c79187c7b1a7c7c1b978808d4980897bb1097cc18d4cb0bd4b8087c791d7c7b1c7c7c1e7c771f979908d4b90997cc10977718d4c707d49707977720d487076f776fa86f396f2a7b5a187b59107b58087b57821008821595111032008378330701330933001e0a0501951160ff7b1098007b1590007b1688009515a0008411e0828b829608828008829395ba1f7b1b58d8ba02c8200c7b1340d83a03d36c0a7b1648d86c0bdaa30b828410d80c0ada220a829218828318829610c84a0ad84a08c83808d32809d92808d86a0cda9c08d36a0ad4a909db980b510b19017b12287b16307b1738821758d447077b1318d43008d487079877207b1420d44808978820d487075207ed0064068118588317600a02018217788218708213687b1750d48707883a01947a510acb00821960821758957b20d87b07c876007b1b10c89b0b7b1958d89b02c8030cc82c0cd33c09d83c0ada920ad86009da7709821720c89704d87406821718c86707821648d36c09d8c60c821640d8b60bdb9c0bc84809d8890c8216507b1748c87606c86c0cc89a0ad89a09c8c909821628d3690cd89602821930d8a906dbc206d3a909d4c909db960b520b408219388217587b97208217107b977b93287b90087b98307b94108217507b97388217487b9718955160ff8210980082159000821688009511a00032000033073308501020d2f8837833070133093300220a05019511e0fe7b1018017b1510017b160801951520018411e0648482920882800882988246829310d3020bd8020ad8680cdabc0ac9020bc9cb0b7b16587b1840c9680c88cc2085cc018248108eb6dbb60c829b18824618c98309c9a904d8a909d8830a7b1b30c96b0bc9ab0bc99b0b8fb98e4adbb90ad4b409db9a0c510c17017b17187b13487b1250821758d487077b10387b1620d46009d497079877207b1828d49808978820d487075207e8008118588317e0000a02018212f8008218f0008219e800d4280a889b0194ab510bc700821ae000821b58c8ab0bd8ab0a821c38c89c0cc8ac0cd39c07d89c09da7a09821728c88707c87909d8790ad88707821820c88202c82707c87a0a8217407b17608217507b17687b1b80008217487b17708217307b17787b1c88007b1990009517a000951880009519607b1a980050102427fd8212a8008213a0008219b800821ab000821bd000821cd8008217c0008218c8008216187b6b307b6c387b67207b68287b6a107b69187b637b62089551e0fe82101801821510018216080195112001320000330733085010262bf7837833070133093300280a0501808910828a0882884917187b79107b7a087b783200821710018218180182190801821a0001d49808d4a707d487075207c60138070400024921980049219000492188007b1780004921b8004921b0004921a000049517c0009518a000951980004921a80050102af5fd8212c0008217c8008218d0008219d800821be000821ce8008216f000821af8007b1a387b16307b1c287b1b207b19587b18507b17489517609518409519207b124050102c140c8217707b17088217687b17108217607b171833074033082050102e52f67c78117c79107c7a127c7b13978808d4980897aa1097bb18d4ba0ad4a8087c79157c7a147c7b167c7c17979908d4a90997bb1097cc18d4cb0bd4b909979920d489027c79017c7a7c7b027c7c03979908d4a90997bb1097cc18d4cb0bd4b9097c7a057c7b047c7c067c760797aa08d4ba0a97cc10976618d46c0cd4ca0a97aa20d4a9097c7a197c7b187c7c1a7c761b97aa08d4ba0a97cc10976618d46c0cd4ca0a7c7b1d7c7c1c7c761e7c781f97bb08d4cb0b976610978818d46808d4b808978820d48a0a7c78097c7b087c7c0a7c760b978808d4b80897cc10976618d46c0cd4c8087c7b0d7c7c0c7c760e7c770f97bb08d4cb0b976610977718d46707d4b707977720d487076f786fa76f996f2ad4a909d4870ad49a0a98aa20d49808978820d4a808510817003307330850103021f5837833070133090a050182180897882098862083777b170833082050103201f56f688219106f99821a186faa98ab38787b1f98ab30787b1e98ab28787b1d98ab20787b1c98ab18787b1b98ab10787b1a98ab08787b19787a1878791046170b46170a4617094617074617064617054617044617034617024617014607989a38787a17989a30787a16989a28787a15989a20787a14989a18787a13989a10787a1298990878791178780898893878790f98893078790e98892878790d98882078780c33082082170850103455f4837833092033073300360a0501491718491710491708490732007c78197c79187c7a1a7c7b1b978808d4980897aa1097bb18d4ba0ad4a8087c791d7c7a1c7c7b1e7c7c1f979908d4a90997bb1097cc18d4cb0bd4b909979920d489027c79117c7a107c7b127c7c13979908d4a90997bb1097cc18d4cb0bd4b9097c7a157c7b147c7c167c761797aa08d4ba0a97cc10976618d46c0cd4ca0a97aa20d4a9097c7a097c7b087c7c0a7c760b97aa08d4ba0a97cc10976618d46c0cd4ca0a7c7b0d7c7c0c7c760e7c780f97bb08d4cb0b976610978818d46808d4b808978820d48a0a7c78017c7b7c7c027c7603978808d4b80897cc10976618d46c0cd4c8087c7b057c7c047c76067c770797bb08d4cb0b976610977718d46707d4b707977720d487076f736fa46f966f2c82181895871fd88708821a20c88a09d8a90ada880a821828c88a0ad88a08821b30c8b8088477e0c8c7077b1c287b1710d8c70bc86909c8b90cd36c097b1630d86c07da9b07c84a0ac87a0bd8ab06d84a09c83808c89808c886068eb88e69da6809d46b087b1c088ecadb890a520a2301d84b08d33609d8360ada980ad34b08d49808db8a0752070a013307403308207b14207b13187b1b50103a90f26f6882196f99821a086faa821b106fbb787b1898bc38787c1f98bc30787c1e98bc28787c1d98bc20787c1c98bc18787c1b98bc10787c1a98bb08787b19787a1098ab38787b1798ab30787b1698ab28787b1598ab20787b1498ab18787b1398ab10787b1298aa08787a11787908989a38787a0f989a30787a0e989a28787a0d989a20787a0c989a18787a0b989a10787a0a98990878790978789889387879079889307879069889287879059889207879049889187879039889107879029888087878018217388218287b788218187b78188218307b78088218207b7810955160ff8210980082159000821688009511a0003200491170491168491160140700000000717b484e9518607b1778330750103cbdf14911584911504911404133070495184049114850103ea5f133082433075010405bf183783307013309243300420a0501828a18828b10828908d4ba0a889b0194ab510b308288958a1fd88a08c8980884880184aae095a920d8a90ac8a80bd88b08daaa084917187b797b7b087b781032009511b07b10487b15409515508411f0491130491128491120140700000000717b484e9518207b173833075010441df1491118491110490141330704641849110850104607f13308243307501048bdf0837833070133092433004a0a05019511a87b10507b15487b1640827a10827b18827c088277d4cb0bd4a70cd4bc0c98cc20d4ba0a97aa20d4ca0a520a4701829b18829c108295829608d4c509d4b60ad4a909989920d4ca0a97aa20d4a909520923017b16287b1c307b1b38828918828a10828c828b08d4ac087b19207b1b10d4b909d498089888207b1a18d4a909979920d498085208ed0083777b170883c7835664687b1c50104c13f0837764688219080a01018217c85707d85708821b28821910c8b909c88909d3b90ad8b90bdaa80b821c30821818c8c808c88b0bd88b0ad8c808821c38821620c86c0cc8c808c8a808d4b70ad49808d48a0a98aa20d4b808978820d4a80852087a837733082050104ea9ef46171f46171e46171d46171c46171b46171a46171946171846171746171646171546171446171346171246171146171046170f46170e46170d46170c46170b46170a46170946170846170746170646170546170446170346170246170146078210508215488216409511583200009511e0fe7b1018017b1510017b160801951520018411f0829b18829c108296087b1b507b1c48d4cb0b886c0194bc7b17510caa0382a7187b171882a7107b172082a7087b170882a77b171082998287187b17708287107b17788287087b176882877b176095971f7b1940d89708c868088488018477e0957920d87907c8780ad88a0bda770b4921d8007b19c0007b1ac8009517e0009518c0007b1bd000330050951160ff7b1098007b1590007b1688009515a0008411f08289187b19308289107b19288289087b192082887b18187b1738330740330820330038285cee8217f8008219f0008218e800821ae0007b17587b1830d48707d49a08d478089888207b1938d49707977720d487075207ce027b1a2883a73308205010521fee821440821860c84808d8480a821968c86909c8a90bd36b0cd86b09daca09821c08d3cb0ad8bc0b821c10d88c08821048821c78c80c0cdbab08d80c0a821350821b70c83b0bc8ba0ac8c909d8c90bc8ba0a821c18d3ca0bd8ac0a821220d8920cdabc0ad32909d4b909db9a086f49989a38787a1f989a30787a1e989a28787a1d989a20787a1c989a18787a1b989a10787a1a989a08787a196f6a78791898a93878791798a93078791698a92878791598a92078791498a91878791398a9107879126f09787a1098aa08787a11989a38787a0f989a30787a0e989a28787a0d989a20787a0c989a18787a0b989a10787a0a6f3a78790898990878790998a93878790798a93078790698a92878790598a92078790498a91878790398a910787902787a98aa08787a018212605208eb01821978d49207821870821a68d4a808d48707987720d49808978820d48707821a5852076e01d40407d43608d48707987720d40808978820d48707821938821b30821c2852074c017b1678d4a9071408e0ffffff00000000d88c0894b894785108310195c620d8c607c87b087b1820d8b808da7708c898087b1868d898077b177083227b1260836783487b181850105460ec83778218188219600a0101821740c86707d86708821978821b20c8b909c88909d3b90ad8b90bdaa80b821848821a68c8a808c88b0bd88b02d8a808821c50821658c86c0c821a70c8ac0cc8c808c82808d4b70ad49808d48a0a98aa20d4b808978820d4a808520899008377330820501056edeb46171f46171e46171d46171c46171b46171a46171946171846171746171646171546171446171346171246171146171046170f46170e46170d46170c46170b46170a461709461708461707461706461705461704461703461702461701460782178218287b787b76188218307b78088218387b78109551e0fe821018018215100182160801951120013200004921b0004921a8004921a000140700000000717b484e9518a0007b17b80033075010587ceb49219800492190004921800041330704951880004921880050105a5feb330824330750105c15eb83783307013309240a05013307330850105e01eb837833070133093300600a0501951160ff7b1098007b1590007b1688009515a0008411f08282828308828410828018829b829a08829c10829918380804000264764911184911104911087b187b19387b1c307b1a287b1b207b10587b14507b1348951760951840951920641a7b124050106257fb821770821878821960821a687b67107b68187b697b6a08955160ff8210980082159000821688009511a0003200951180fd7b1078027b1570027b166802951580028411e08296188292108293829c088e698e2adb690a8ec9883b1485bb01dbc90bd46209db9a0b510bc3057b1320017b1c28017b1638017b1230017b170001828918828a108286828808d4a6077b1918017b180801d49808d487079877207b1a1001d4a808978820d4870752077e058368831740020a02956314d8630982170801c89704d8740ada990a82171001c8a702d8720a82171801c87a0a7b1a180182172001957becd87b0682172801c8670c95ccffd37c0ad87c07daa60782103001880a0182183801c9a80a821858027b1838019508ff3806040002821950027b191001821948027b190801c88707d88700c8a0004921580149215001492148017b1640017b1c68017b1b60017b1488017b1380017b1290017b177001821718017b1798019517a0019518800195196001951a40017b107801501064dbf98218b801821ab0018217a8018219a0017b1730017b182801d48707d4a908d478089888207b1a2001d4a707977720d4870752077c048216100198672082183801978820d487077b17f80082170801987720976620d4760683973308207b177b191801501066aae87c78187b18287c78197b18087c781a7b18187c781b7b18107c781c7b18407c781d7b18207c781e7b18387c781f7b18307c78107b18687c78117b18487c78127b18587c78137b18507c78147b1880007c78157b18607c78167b18787c78177b18707c78087b18a8007c78097b1888007c780a7b1898007c780b7b1890007c780c7b18c0007c780d7b18a0007c780e7b18b8007c780f7b18b0007c787b18e8007c78017b18c8007c78027b18d8007c78037b18d0007c78047b1810017c78057b18e0007c78067b1808017c77077b17f0000a04016f679778208219f8006f99989a20d4a808979920821a38016faa97aa2098aa20d4a9099877207a17d0017b18c8017b19c0014921f8014921f0014921e8018217280182182001d487071408e0ffffff0000000082191801d8890882193001949894784921e00151080d03821708977708821828d48707821818978810821910979918d49808d48707821820978808821940d49808821938979910821a3097aa18d4a909d49808978820d48707821848978808821968d49808821958979910821a5097aa18d4a909d49808821960979908821a8000d4a909821a7897aa10821b7097bb18d4ba0ad4a909979920d4980882198800979908821aa800d4a909821a980097aa10821b900097bb18d4ba0ad4a909821aa00097aa08821bc000d4ba0a821bb80097bb10821cb00097cc18d4cb0bd4ba0a97aa20d4a909821ac80097aa08821be800d4ba0a821bd80097bb10821cd00097cc18d4cb0bd4ba0a821be00097bb08821c1001d4cb0b821c080197cc108216f000976618d46c0cd4cb0b97bb20d4ba0a6faa6f996f886f76d4a808d49607d48707d49808987720978820d487075207d3018217837720836850106827e67b173801330820330750106a19e6482100022049213802ff49213002ff49212802ff49212002ff9518c00197882098882014090000000008000000d498029518e00197882098882095192002979920d4890a82183801978820988820976b20d48b0b97772098772095180002978820d4780c3308ff3309ff64270a6476330820330750106ca0e57c78197c79187c7a1a7c7b1b978808d4980897aa1097bb18d4ba0ad4a8087c791d7c7a1c7c7b1e7c7c1f979908d4a90997bb1097cc18d4cb0bd4b909979920d489027c79117c7a107c7b127c7c13979908d4a90997bb1097cc18d4cb0bd4b9097c7a157c7b147c7c167c781797aa08d4ba0a97cc10978818d4c808d4a808978820d498037c78097c7a087c7b0a7c7c0b978808d4a80897bb1097cc18d4cb0bd4b8087c7a0d7c7b0c7c7c0e7c790f97aa08d4ba0a97cc10979918d4c909d4a909979920d4890a7c78017c797c7b027c7c03978808d4980897bb1097cc18d4cb0bd4b8087c79057c7b047c7c067c7707979908d4b90997cc10977718d4c707d49707977720d487076f776fa86f396f2a946a946994689467821b00017bb7187bb8107bb9087bba955180fd821078028215700282166802951180023200003307330850106e5ae4837833070133090a053307330070287ae5330750107075e53307015010726de59511c07b10387b15307b16289515408411f0647664175010747be88217108218188219821a087b67107b68187b697b6a089551c0821038821530821628951140320049489220248414d249525252a22a2529499224499224499224499224499224499224499224494a4a43222449928490244992244992244992244929a9494a124948922449922449922425499224499224499224499224499224499224499224499254254992ac506a15aa86845aa14a93244908499224499224499224490a49a29a04904444442222a2245592541252922449922449922449922449922449922449922449922449922449922449922455494aa9944644444a4a922449922449922449224992244912254d92a4489224499224499224499224499224499224494a92248988885628a5111191924a9224499294244992a49244922449922491684424452449922449922449124912119108111111114992a44444442b94d2a424151191244244444488880811111111499224494292244948922449922449922425499224499224499224499224499224499224499224499254254992ac506a9292504a4992244992244992244949922449922449922409a53449254992244992244992244992244992244992244992244992242949922449922449aa9224499224499224499224a924259224492449a14a29499224499224499224499224499224495292244992244949924444444902480a4924092994a4499252922449929292244902480a4952420a25699224294992445292244924494a92244912a52a545a92244992244992244992949024499224499224499224494a92464444922449459224a524494a92244992888888444444922429499288882449922452429224499224499224499224499294244992244949922449929224499224494992244992a42491244992249224499248024845922449522aa1a4499224499224499224499244094992244992244992244992a452922422221a11014414224222420a25ad504a23222225294928494992244909499294888828222292944a4992888888a42422492489a224924412894822491289442444442489888888888888888810111191249124229144242945489224499224499224492449924824128944225124128944229168899244491211111191002251114992244992244992244992244924499224128944924824124992482412492291482449aa9224499442a410420821920012492491244924494b214992244992244992244992244992244992244992244992244949922449922449525515498a888856285552484892a442529292240900"
				},
				"methodIdentifiers": {
					"createSender(bytes)": "570e1a36"
				}
			},
			"hash": "f31fda286c7bbd07af79d47b84c1249e99679c9b123ebe24f4b637aa4d077936",
			"factoryDependencies": {}
		}
	}
}